{
  "contractName": "DCPChecker",
  "abi": [
    {
      "inputs": [],
      "stateMutability": "nonpayable",
      "type": "constructor"
    },
    {
      "inputs": [
        {
          "internalType": "string[]",
          "name": "ligitimateKeys",
          "type": "string[]"
        },
        {
          "internalType": "string",
          "name": "key",
          "type": "string"
        },
        {
          "internalType": "string[]",
          "name": "caPubKeys",
          "type": "string[]"
        }
      ],
      "name": "check",
      "outputs": [
        {
          "internalType": "bool",
          "name": "",
          "type": "bool"
        }
      ],
      "stateMutability": "pure",
      "type": "function",
      "constant": true
    }
  ],
  "bytecode": "0x608060405234801561001057600080fd5b506104b6806100206000396000f3fe608060405234801561001057600080fd5b506004361061002b5760003560e01c80638414c63c14610030575b600080fd5b61004a60048036038101906100459190610284565b610060565b6040516100579190610372565b60405180910390f35b6000806000905060005b85518110156100ef5784604051602001610084919061035b565b604051602081830303815290604052805190602001208682815181106100a657fe5b60200260200101516040516020016100be919061035b565b6040516020818303038152906040528051906020012014915081156100e2576100ef565b808060010191505061006a565b5060005b8351811015610178578460405160200161010d919061035b565b6040516020818303038152906040528051906020012084828151811061012f57fe5b6020026020010151604051602001610147919061035b565b60405160208183030381529060405280519060200120149150811561016b57610178565b80806001019150506100f3565b508061018857600091505061018e565b60019150505b9392505050565b60006101a86101a3846103be565b61038d565b9050808382526020820190508260005b858110156101e857813585016101ce888261025a565b8452602084019350602083019250506001810190506101b8565b5050509392505050565b6000610205610200846103ea565b61038d565b90508281526020810184848401111561021d57600080fd5b61022884828561043c565b509392505050565b600082601f83011261024157600080fd5b8135610251848260208601610195565b91505092915050565b600082601f83011261026b57600080fd5b813561027b8482602086016101f2565b91505092915050565b60008060006060848603121561029957600080fd5b600084013567ffffffffffffffff8111156102b357600080fd5b6102bf86828701610230565b935050602084013567ffffffffffffffff8111156102dc57600080fd5b6102e88682870161025a565b925050604084013567ffffffffffffffff81111561030557600080fd5b61031186828701610230565b9150509250925092565b61032481610430565b82525050565b60006103358261041a565b61033f8185610425565b935061034f81856020860161044b565b80840191505092915050565b6000610367828461032a565b915081905092915050565b6000602082019050610387600083018461031b565b92915050565b6000604051905081810181811067ffffffffffffffff821117156103b4576103b361047e565b5b8060405250919050565b600067ffffffffffffffff8211156103d9576103d861047e565b5b602082029050602081019050919050565b600067ffffffffffffffff8211156104055761040461047e565b5b601f19601f8301169050602081019050919050565b600081519050919050565b600081905092915050565b60008115159050919050565b82818337600083830152505050565b60005b8381101561046957808201518184015260208101905061044e565b83811115610478576000848401525b50505050565bfefea2646970667358221220bf8fa8c11fdbdd2f5ec603368f4be2d8a4ad4bd61b371be626869e1e8cc31ecc64736f6c63430007060033",
  "immutableReferences": {},
  "source": "// SPDX-License-Identifier: MIT\npragma solidity ^0.7.0;\npragma experimental ABIEncoderV2;\n\n// import \"./X509.sol\";\n\ncontract DCPChecker {\n  constructor(){}\n    function check (string[] memory ligitimateKeys, string memory key, string[] memory caPubKeys ) public pure returns(bool) { \n        bool isKeyLigitimate = false;\n        for(uint i = 0; i < ligitimateKeys.length; i++){\n          isKeyLigitimate = keccak256(abi.encodePacked(ligitimateKeys[i])) == keccak256(abi.encodePacked(key));\n          if(isKeyLigitimate) break;\n        }\n        for(uint j = 0; j < caPubKeys.length; j++){\n          isKeyLigitimate = keccak256(abi.encodePacked(caPubKeys[j])) == keccak256(abi.encodePacked(key));\n          if(isKeyLigitimate) break;\n        }\n        if(!isKeyLigitimate) return false;\n        return true;\n    }\n\n}",
  "sourcePath": "C:/Users/chanc/Documents/devlopment/babel_webpack_starter/src/contracts/DCPChecker.sol",
  "compiler": {
    "name": "solc",
    "version": "0.7.6+commit.7338295f.Emscripten.clang"
  },
  "schemaVersion": "3.3.4",
  "updatedAt": "2021-04-08T18:17:09.641Z",
  "networkType": "ethereum",
  "devdoc": {
    "kind": "dev",
    "methods": {},
    "version": 1
  },
  "userdoc": {
    "kind": "user",
    "methods": {},
    "version": 1
  }
}