{
  "contractName": "IKP",
  "abi": [
    {
      "anonymous": false,
      "inputs": [
        {
          "indexed": false,
          "internalType": "string",
          "name": "message",
          "type": "string"
        }
      ],
      "name": "NewTransaction",
      "type": "event"
    },
    {
      "anonymous": false,
      "inputs": [
        {
          "indexed": false,
          "internalType": "bytes32",
          "name": "rpHash",
          "type": "bytes32"
        }
      ],
      "name": "RpPurchased",
      "type": "event"
    },
    {
      "inputs": [
        {
          "internalType": "string",
          "name": "",
          "type": "string"
        }
      ],
      "name": "caBalances",
      "outputs": [
        {
          "internalType": "uint256",
          "name": "",
          "type": "uint256"
        }
      ],
      "stateMutability": "view",
      "type": "function",
      "constant": true
    },
    {
      "inputs": [
        {
          "internalType": "string",
          "name": "",
          "type": "string"
        }
      ],
      "name": "caList",
      "outputs": [
        {
          "internalType": "string",
          "name": "name",
          "type": "string"
        },
        {
          "internalType": "address payable",
          "name": "paymentAccount",
          "type": "address"
        },
        {
          "internalType": "bool",
          "name": "inUse",
          "type": "bool"
        }
      ],
      "stateMutability": "view",
      "type": "function",
      "constant": true
    },
    {
      "inputs": [
        {
          "internalType": "string",
          "name": "",
          "type": "string"
        },
        {
          "internalType": "uint256",
          "name": "",
          "type": "uint256"
        }
      ],
      "name": "caPubKeys",
      "outputs": [
        {
          "internalType": "string",
          "name": "",
          "type": "string"
        }
      ],
      "stateMutability": "view",
      "type": "function",
      "constant": true
    },
    {
      "inputs": [
        {
          "internalType": "string",
          "name": "",
          "type": "string"
        }
      ],
      "name": "dcpList",
      "outputs": [
        {
          "internalType": "string",
          "name": "domainName",
          "type": "string"
        },
        {
          "internalType": "bool",
          "name": "inUse",
          "type": "bool"
        },
        {
          "internalType": "address payable",
          "name": "paymentAccount",
          "type": "address"
        },
        {
          "internalType": "contract DCPChecker",
          "name": "checker",
          "type": "address"
        }
      ],
      "stateMutability": "view",
      "type": "function",
      "constant": true
    },
    {
      "inputs": [
        {
          "internalType": "string",
          "name": "",
          "type": "string"
        },
        {
          "internalType": "uint256",
          "name": "",
          "type": "uint256"
        }
      ],
      "name": "dcpPubKeys",
      "outputs": [
        {
          "internalType": "string",
          "name": "",
          "type": "string"
        }
      ],
      "stateMutability": "view",
      "type": "function",
      "constant": true
    },
    {
      "inputs": [],
      "name": "domainRegisterFee",
      "outputs": [
        {
          "internalType": "uint256",
          "name": "",
          "type": "uint256"
        }
      ],
      "stateMutability": "view",
      "type": "function",
      "constant": true
    },
    {
      "inputs": [],
      "name": "registerCaFee",
      "outputs": [
        {
          "internalType": "uint256",
          "name": "",
          "type": "uint256"
        }
      ],
      "stateMutability": "view",
      "type": "function",
      "constant": true
    },
    {
      "inputs": [],
      "name": "reportFee",
      "outputs": [
        {
          "internalType": "uint256",
          "name": "",
          "type": "uint256"
        }
      ],
      "stateMutability": "view",
      "type": "function",
      "constant": true
    },
    {
      "inputs": [
        {
          "internalType": "bytes32",
          "name": "",
          "type": "bytes32"
        }
      ],
      "name": "rpList",
      "outputs": [
        {
          "internalType": "string",
          "name": "domainName",
          "type": "string"
        },
        {
          "internalType": "string",
          "name": "cname",
          "type": "string"
        },
        {
          "internalType": "contract RPReaction",
          "name": "reaction",
          "type": "address"
        }
      ],
      "stateMutability": "view",
      "type": "function",
      "constant": true
    },
    {
      "inputs": [],
      "name": "rpMinimumPrice",
      "outputs": [
        {
          "internalType": "uint256",
          "name": "",
          "type": "uint256"
        }
      ],
      "stateMutability": "view",
      "type": "function",
      "constant": true
    },
    {
      "inputs": [
        {
          "internalType": "string",
          "name": "_name",
          "type": "string"
        },
        {
          "internalType": "string[]",
          "name": "_pks",
          "type": "string[]"
        }
      ],
      "name": "registerCa",
      "outputs": [],
      "stateMutability": "payable",
      "type": "function",
      "payable": true
    },
    {
      "inputs": [
        {
          "internalType": "string",
          "name": "_dname",
          "type": "string"
        },
        {
          "internalType": "string",
          "name": "_cname",
          "type": "string"
        }
      ],
      "name": "getRpHash",
      "outputs": [
        {
          "internalType": "bytes32",
          "name": "rpHash",
          "type": "bytes32"
        }
      ],
      "stateMutability": "pure",
      "type": "function",
      "constant": true
    },
    {
      "inputs": [
        {
          "internalType": "string",
          "name": "_name",
          "type": "string"
        },
        {
          "internalType": "address",
          "name": "_checkerFunctionAddress",
          "type": "address"
        },
        {
          "internalType": "string[]",
          "name": "_ligitimateKeys",
          "type": "string[]"
        }
      ],
      "name": "registerDomain",
      "outputs": [],
      "stateMutability": "payable",
      "type": "function",
      "payable": true
    },
    {
      "inputs": [
        {
          "internalType": "string",
          "name": "_dname",
          "type": "string"
        },
        {
          "internalType": "string",
          "name": "_cname",
          "type": "string"
        },
        {
          "internalType": "address",
          "name": "_reactionContractAddress",
          "type": "address"
        }
      ],
      "name": "issueRp",
      "outputs": [],
      "stateMutability": "payable",
      "type": "function",
      "payable": true
    },
    {
      "inputs": [
        {
          "internalType": "string",
          "name": "_dname",
          "type": "string"
        },
        {
          "internalType": "string",
          "name": "_cname",
          "type": "string"
        },
        {
          "internalType": "address",
          "name": "_reactionContractAddress",
          "type": "address"
        }
      ],
      "name": "purchaseRp",
      "outputs": [
        {
          "internalType": "bytes32",
          "name": "rpHash",
          "type": "bytes32"
        }
      ],
      "stateMutability": "payable",
      "type": "function",
      "payable": true
    },
    {
      "inputs": [
        {
          "internalType": "bytes32",
          "name": "_rpHash",
          "type": "bytes32"
        }
      ],
      "name": "revokeUnconfirmedRpPurchase",
      "outputs": [],
      "stateMutability": "nonpayable",
      "type": "function"
    },
    {
      "inputs": [
        {
          "internalType": "string",
          "name": "_dname",
          "type": "string"
        },
        {
          "internalType": "string",
          "name": "_cname",
          "type": "string"
        },
        {
          "internalType": "string",
          "name": "_key",
          "type": "string"
        }
      ],
      "name": "commitReport",
      "outputs": [],
      "stateMutability": "payable",
      "type": "function",
      "payable": true
    },
    {
      "inputs": [
        {
          "internalType": "string",
          "name": "_dname",
          "type": "string"
        },
        {
          "internalType": "string",
          "name": "_cname",
          "type": "string"
        },
        {
          "internalType": "string",
          "name": "_key",
          "type": "string"
        }
      ],
      "name": "revealReport",
      "outputs": [],
      "stateMutability": "nonpayable",
      "type": "function"
    }
  ],
  "bytecode": "0x6080604052674563918244f4000060005567d02ab486cedc0000600155670de0b6b3a7640000600255670de0b6b3a764000060035534801561004057600080fd5b50613588806100506000396000f3fe6080604052600436106101095760003560e01c8063824a309311610095578063c831725211610064578063c8317252146103a2578063ccb7e7a5146103cb578063eccc7bd7146103e7578063ef58e95714610417578063f35905f21461044257610109565b8063824a3093146102ec578063927eab521461032b578063ae6df37814610347578063c0ca2b6e1461036357610109565b80633190fdaa116100dc5780633190fdaa146101ca57806351c1f58f1461020a5780636f5a9c6d1461023557806378549246146102725780637ed4ef20146102af57610109565b80631e23fc8a1461010e57806323e8bae31461014b57806327d350b3146101765780632f383d05146101a1575b600080fd5b34801561011a57600080fd5b5061013560048036038101906101309190612476565b61045e565b6040516101429190612f45565b60405180910390f35b34801561015757600080fd5b50610160610491565b60405161016d9190613291565b60405180910390f35b34801561018257600080fd5b5061018b610497565b6040516101989190613291565b60405180910390f35b3480156101ad57600080fd5b506101c860048036038101906101c39190612561565b61049d565b005b3480156101d657600080fd5b506101f160048036038101906101ec919061234a565b610b46565b6040516102019493929190612fc0565b60405180910390f35b34801561021657600080fd5b5061021f610c71565b60405161022c9190613291565b60405180910390f35b34801561024157600080fd5b5061025c6004803603810190610257919061234a565b610c77565b6040516102699190613291565b60405180910390f35b34801561027e57600080fd5b50610299600480360381019061029491906125f8565b610ca5565b6040516102a69190612f60565b60405180910390f35b3480156102bb57600080fd5b506102d660048036038101906102d191906125f8565b610d84565b6040516102e39190612f60565b60405180910390f35b3480156102f857600080fd5b50610313600480360381019061030e919061234a565b610e63565b60405161032293929190612f82565b60405180910390f35b6103456004803603810190610340919061240a565b610f68565b005b610361600480360381019061035c9190612561565b61118a565b005b34801561036f57600080fd5b5061038a60048036038101906103859190612321565b611371565b6040516103999392919061300c565b60405180910390f35b3480156103ae57600080fd5b506103c960048036038101906103c49190612321565b6114eb565b005b6103e560048036038101906103e0919061238b565b6116a8565b005b61040160048036038101906103fc91906124e2565b6118d4565b60405161040e9190612f45565b60405180910390f35b34801561042357600080fd5b5061042c611c28565b6040516104399190613291565b60405180910390f35b61045c600480360381019061045791906124e2565b611c2e565b005b60008282604051602001610473929190612e21565b60405160208183030381529060405280519060200120905092915050565b60005481565b60025481565b3373ffffffffffffffffffffffffffffffffffffffff16600b6000858585336040516020016104cf9493929190612e45565b60405160208183030381529060405280519060200120815260200190815260200160002060000160009054906101000a900473ffffffffffffffffffffffffffffffffffffffff1673ffffffffffffffffffffffffffffffffffffffff161461056d576040517f08c379a000000000000000000000000000000000000000000000000000000000815260040161056490613091565b60405180910390fd5b60008383604051602001610582929190612e21565b604051602081830303815290604052805190602001209050836040516020016105ab9190612e0a565b60405160208183030381529060405280519060200120600960008381526020019081526020016000206000016040516020016105e79190612e87565b6040516020818303038152906040528051906020012014610651573373ffffffffffffffffffffffffffffffffffffffff166108fc6000549081150290604051600060405180830381858888f1935050505015801561064a573d6000803e3d6000fd5b5050610b41565b60008484604051602001610666929190612e21565b604051602081830303815290604052805190602001209050600060096000848152602001908152602001600020600001600960008581526020019081526020016000206001016040516020016106bd929190612e9e565b60405160208183030381529060405280519060200120905080821461075557600b6000878787336040516020016106f79493929190612e45565b604051602081830303815290604052805190602001208152602001908152602001600020600080820160006101000a81549073ffffffffffffffffffffffffffffffffffffffff021916905560018201600090555050505050610b41565b60006007876040516107679190612e0a565b908152602001604051809103902060020160009054906101000a900473ffffffffffffffffffffffffffffffffffffffff1673ffffffffffffffffffffffffffffffffffffffff16638414c63c6008896040516107c49190612e0a565b90815260200160405180910390208760058a6040516107e39190612e0a565b90815260200160405180910390206040518463ffffffff1660e01b815260040161080f93929190612ef9565b60206040518083038186803b15801561082757600080fd5b505afa15801561083b573d6000803e3d6000fd5b505050506040513d601f19601f8201168201806040525081019061085f91906122f8565b905080156108e157600b6000888888336040516020016108829493929190612e45565b604051602081830303815290604052805190602001208152602001908152602001600020600080820160006101000a81549073ffffffffffffffffffffffffffffffffffffffff02191690556001820160009055505050505050610b41565b6009600085815260200190815260200160002060020160009054906101000a900473ffffffffffffffffffffffffffffffffffffffff1673ffffffffffffffffffffffffffffffffffffffff16635a90e4c36001543360048a6040516109479190612e0a565b908152602001604051809103902060010160009054906101000a900473ffffffffffffffffffffffffffffffffffffffff1660078c6040516109899190612e0a565b908152602001604051809103902060010160019054906101000a900473ffffffffffffffffffffffffffffffffffffffff166040518563ffffffff1660e01b81526004016109d993929190612ec2565b6000604051808303818588803b1580156109f257600080fd5b505af1158015610a06573d6000803e3d6000fd5b5050505050600154600687604051610a1e9190612e0a565b9081526020016040518091039020600082825403925050819055506009600085815260200190815260200160002060008082016000610a5d919061203e565b600182016000610a6d919061203e565b6002820160006101000a81549073ffffffffffffffffffffffffffffffffffffffff02191690555050600b600088888833604051602001610ab19493929190612e45565b604051602081830303815290604052805190602001208152602001908152602001600020600080820160006101000a81549073ffffffffffffffffffffffffffffffffffffffff0219169055600182016000905550507f08f81b6e9109fad00df4c1e4c8017ba4cb67013034439d71e57399c83aa23f3c604051610b34906131d1565b60405180910390a1505050505b505050565b600781805160208101820180518482526020830160208501208183528095505050505050600091509050806000018054600181600116156101000203166002900480601f016020809104026020016040519081016040528092919081815260200182805460018160011615610100020316600290048015610c085780601f10610bdd57610100808354040283529160200191610c08565b820191906000526020600020905b815481529060010190602001808311610beb57829003601f168201915b5050505050908060010160009054906101000a900460ff16908060010160019054906101000a900473ffffffffffffffffffffffffffffffffffffffff16908060020160009054906101000a900473ffffffffffffffffffffffffffffffffffffffff16905084565b60035481565b6006818051602081018201805184825260208301602085012081835280955050505050506000915090505481565b6005828051602081018201805184825260208301602085012081835280955050505050508181548110610cd757600080fd5b90600052602060002001600091509150508054600181600116156101000203166002900480601f016020809104026020016040519081016040528092919081815260200182805460018160011615610100020316600290048015610d7c5780601f10610d5157610100808354040283529160200191610d7c565b820191906000526020600020905b815481529060010190602001808311610d5f57829003601f168201915b505050505081565b6008828051602081018201805184825260208301602085012081835280955050505050508181548110610db657600080fd5b90600052602060002001600091509150508054600181600116156101000203166002900480601f016020809104026020016040519081016040528092919081815260200182805460018160011615610100020316600290048015610e5b5780601f10610e3057610100808354040283529160200191610e5b565b820191906000526020600020905b815481529060010190602001808311610e3e57829003601f168201915b505050505081565b600481805160208101820180518482526020830160208501208183528095505050505050600091509050806000018054600181600116156101000203166002900480601f016020809104026020016040519081016040528092919081815260200182805460018160011615610100020316600290048015610f255780601f10610efa57610100808354040283529160200191610f25565b820191906000526020600020905b815481529060010190602001808311610f0857829003601f168201915b5050505050908060010160009054906101000a900473ffffffffffffffffffffffffffffffffffffffff16908060010160149054906101000a900460ff16905083565b600354341015610fad576040517f08c379a0000000000000000000000000000000000000000000000000000000008152600401610fa4906131b1565b60405180910390fd5b600482604051610fbd9190612e0a565b908152602001604051809103902060010160149054906101000a900460ff161561101c576040517f08c379a000000000000000000000000000000000000000000000000000000000815260040161101390613071565b60405180910390fd5b600060405180606001604052808481526020013373ffffffffffffffffffffffffffffffffffffffff168152602001600115158152509050806004846040516110659190612e0a565b9081526020016040518091039020600082015181600001908051906020019061108f929190612086565b5060208201518160010160006101000a81548173ffffffffffffffffffffffffffffffffffffffff021916908373ffffffffffffffffffffffffffffffffffffffff16021790555060408201518160010160146101000a81548160ff0219169083151502179055509050508160058460405161110b9190612e0a565b9081526020016040518091039020908051906020019061112c929190612114565b503460068460405161113e9190612e0a565b9081526020016040518091039020819055507f08f81b6e9109fad00df4c1e4c8017ba4cb67013034439d71e57399c83aa23f3c60405161117d90613131565b60405180910390a1505050565b60005434146111ce576040517f08c379a00000000000000000000000000000000000000000000000000000000081526004016111c590613271565b60405180910390fd5b6000838383336040516020016111e79493929190612e45565b604051602081830303815290604052805190602001209050600073ffffffffffffffffffffffffffffffffffffffff16600b600083815260200190815260200160002060000160009054906101000a900473ffffffffffffffffffffffffffffffffffffffff1673ffffffffffffffffffffffffffffffffffffffff16146112a4576040517f08c379a000000000000000000000000000000000000000000000000000000000815260040161129b90613151565b60405180910390fd5b60405180604001604052803373ffffffffffffffffffffffffffffffffffffffff16815260200142815250600b600083815260200190815260200160002060008201518160000160006101000a81548173ffffffffffffffffffffffffffffffffffffffff021916908373ffffffffffffffffffffffffffffffffffffffff160217905550602082015181600101559050507f08f81b6e9109fad00df4c1e4c8017ba4cb67013034439d71e57399c83aa23f3c604051611363906131f1565b60405180910390a150505050565b6009602052806000526040600020600091509050806000018054600181600116156101000203166002900480601f01602080910402602001604051908101604052809291908181526020018280546001816001161561010002031660029004801561141d5780601f106113f25761010080835404028352916020019161141d565b820191906000526020600020905b81548152906001019060200180831161140057829003601f168201915b505050505090806001018054600181600116156101000203166002900480601f0160208091040260200160405190810160405280929190818152602001828054600181600116156101000203166002900480156114bb5780601f10611490576101008083540402835291602001916114bb565b820191906000526020600020905b81548152906001019060200180831161149e57829003601f168201915b5050505050908060020160009054906101000a900473ffffffffffffffffffffffffffffffffffffffff16905083565b600a600082815260200190815260200160002060010160009054906101000a900473ffffffffffffffffffffffffffffffffffffffff1673ffffffffffffffffffffffffffffffffffffffff163373ffffffffffffffffffffffffffffffffffffffff161461158f576040517f08c379a0000000000000000000000000000000000000000000000000000000008152600401611586906130d1565b60405180910390fd5b3373ffffffffffffffffffffffffffffffffffffffff166108fc600a6000848152602001908152602001600020600301549081150290604051600060405180830381858888f193505050501580156115eb573d6000803e3d6000fd5b50600a600082815260200190815260200160002060008082016000611610919061203e565b6001820160006101000a81549073ffffffffffffffffffffffffffffffffffffffff02191690556002820160006101000a81549073ffffffffffffffffffffffffffffffffffffffff02191690556003820160009055600482016000905550507f08f81b6e9109fad00df4c1e4c8017ba4cb67013034439d71e57399c83aa23f3c60405161169d90613231565b60405180910390a150565b6007836040516116b89190612e0a565b908152602001604051809103902060010160009054906101000a900460ff161580156116e657506002543410155b611725576040517f08c379a000000000000000000000000000000000000000000000000000000000815260040161171c90613251565b60405180910390fd5b600060405180608001604052808581526020016001151581526020013373ffffffffffffffffffffffffffffffffffffffff1681526020018473ffffffffffffffffffffffffffffffffffffffff1681525090508060078560405161178a9190612e0a565b908152602001604051809103902060008201518160000190805190602001906117b4929190612086565b5060208201518160010160006101000a81548160ff02191690831515021790555060408201518160010160016101000a81548173ffffffffffffffffffffffffffffffffffffffff021916908373ffffffffffffffffffffffffffffffffffffffff16021790555060608201518160020160006101000a81548173ffffffffffffffffffffffffffffffffffffffff021916908373ffffffffffffffffffffffffffffffffffffffff160217905550905050816008856040516118779190612e0a565b90815260200160405180910390209080519060200190611898929190612114565b507f08f81b6e9109fad00df4c1e4c8017ba4cb67013034439d71e57399c83aa23f3c6040516118c690613051565b60405180910390a150505050565b60006007846040516118e69190612e0a565b90815260200160405180910390206000016040516020016119079190612e87565b604051602081830303815290604052805190602001208460405160200161192e9190612e0a565b6040516020818303038152906040528051906020012014611984576040517f08c379a000000000000000000000000000000000000000000000000000000000815260040161197b906130b1565b60405180910390fd5b6004836040516119949190612e0a565b90815260200160405180910390206000016040516020016119b59190612e87565b60405160208183030381529060405280519060200120836040516020016119dc9190612e0a565b6040516020818303038152906040528051906020012014611a32576040517f08c379a0000000000000000000000000000000000000000000000000000000008152600401611a2990613171565b60405180910390fd5b60008484604051602001611a47929190612e21565b6040516020818303038152906040528051906020012090506000600a60008381526020019081526020016000206004015414611ab8576040517f08c379a0000000000000000000000000000000000000000000000000000000008152600401611aaf90613111565b60405180910390fd5b60006040518060a001604052808681526020013373ffffffffffffffffffffffffffffffffffffffff1681526020018573ffffffffffffffffffffffffffffffffffffffff16815260200134815260200142815250905080600a60008481526020019081526020016000206000820151816000019080519060200190611b3f929190612086565b5060208201518160010160006101000a81548173ffffffffffffffffffffffffffffffffffffffff021916908373ffffffffffffffffffffffffffffffffffffffff16021790555060408201518160020160006101000a81548173ffffffffffffffffffffffffffffffffffffffff021916908373ffffffffffffffffffffffffffffffffffffffff16021790555060608201518160030155608082015181600401559050507f9629970d207a2d036264908ea7f3ccec0cfd6c8f8d2f64c5459ee1e1d62543d982604051611c149190612f45565b60405180910390a181925050509392505050565b60015481565b600154341015611c73576040517f08c379a0000000000000000000000000000000000000000000000000000000008152600401611c6a90613211565b60405180910390fd5b60008383604051602001611c88929190612e21565b604051602081830303815290604052805190602001209050600a6000828152602001908152602001600020600001604051602001611cc69190612e87565b6040516020818303038152906040528051906020012083604051602001611ced9190612e0a565b60405160208183030381529060405280519060200120148015611d715750600a600082815260200190815260200160002060020160009054906101000a900473ffffffffffffffffffffffffffffffffffffffff1673ffffffffffffffffffffffffffffffffffffffff168273ffffffffffffffffffffffffffffffffffffffff16145b8015611de95750600483604051611d889190612e0a565b908152602001604051809103902060010160009054906101000a900473ffffffffffffffffffffffffffffffffffffffff1673ffffffffffffffffffffffffffffffffffffffff163373ffffffffffffffffffffffffffffffffffffffff16145b611e28576040517f08c379a0000000000000000000000000000000000000000000000000000000008152600401611e1f90613191565b60405180910390fd5b600060405180606001604052808681526020018581526020018473ffffffffffffffffffffffffffffffffffffffff16815250905080600960008481526020019081526020016000206000820151816000019080519060200190611e8d929190612086565b506020820151816001019080519060200190611eaa929190612086565b5060408201518160020160006101000a81548173ffffffffffffffffffffffffffffffffffffffff021916908373ffffffffffffffffffffffffffffffffffffffff16021790555090505034600685604051611f069190612e0a565b9081526020016040518091039020600082825401925050819055503373ffffffffffffffffffffffffffffffffffffffff166108fc600a6000858152602001908152602001600020600301549081150290604051600060405180830381858888f19350505050158015611f7d573d6000803e3d6000fd5b50600a600083815260200190815260200160002060008082016000611fa2919061203e565b6001820160006101000a81549073ffffffffffffffffffffffffffffffffffffffff02191690556002820160006101000a81549073ffffffffffffffffffffffffffffffffffffffff02191690556003820160009055600482016000905550507f08f81b6e9109fad00df4c1e4c8017ba4cb67013034439d71e57399c83aa23f3c60405161202f906130f1565b60405180910390a15050505050565b50805460018160011615610100020316600290046000825580601f106120645750612083565b601f0160209004906000526020600020908101906120829190612174565b5b50565b828054600181600116156101000203166002900490600052602060002090601f0160209004810192826120bc5760008555612103565b82601f106120d557805160ff1916838001178555612103565b82800160010185558215612103579182015b828111156121025782518255916020019190600101906120e7565b5b5090506121109190612174565b5090565b828054828255906000526020600020908101928215612163579160200282015b82811115612162578251829080519060200190612152929190612086565b5091602001919060010190612134565b5b5090506121709190612191565b5090565b5b8082111561218d576000816000905550600101612175565b5090565b5b808211156121b157600081816121a8919061203e565b50600101612192565b5090565b60006121c86121c3846132dd565b6132ac565b9050808382526020820190508260005b8581101561220857813585016121ee88826122b9565b8452602084019350602083019250506001810190506121d8565b5050509392505050565b600061222561222084613309565b6132ac565b90508281526020810184848401111561223d57600080fd5b612248848285613470565b509392505050565b60008135905061225f816134f6565b92915050565b600082601f83011261227657600080fd5b81356122868482602086016121b5565b91505092915050565b60008151905061229e8161350d565b92915050565b6000813590506122b381613524565b92915050565b600082601f8301126122ca57600080fd5b81356122da848260208601612212565b91505092915050565b6000813590506122f28161353b565b92915050565b60006020828403121561230a57600080fd5b60006123188482850161228f565b91505092915050565b60006020828403121561233357600080fd5b6000612341848285016122a4565b91505092915050565b60006020828403121561235c57600080fd5b600082013567ffffffffffffffff81111561237657600080fd5b612382848285016122b9565b91505092915050565b6000806000606084860312156123a057600080fd5b600084013567ffffffffffffffff8111156123ba57600080fd5b6123c6868287016122b9565b93505060206123d786828701612250565b925050604084013567ffffffffffffffff8111156123f457600080fd5b61240086828701612265565b9150509250925092565b6000806040838503121561241d57600080fd5b600083013567ffffffffffffffff81111561243757600080fd5b612443858286016122b9565b925050602083013567ffffffffffffffff81111561246057600080fd5b61246c85828601612265565b9150509250929050565b6000806040838503121561248957600080fd5b600083013567ffffffffffffffff8111156124a357600080fd5b6124af858286016122b9565b925050602083013567ffffffffffffffff8111156124cc57600080fd5b6124d8858286016122b9565b9150509250929050565b6000806000606084860312156124f757600080fd5b600084013567ffffffffffffffff81111561251157600080fd5b61251d868287016122b9565b935050602084013567ffffffffffffffff81111561253a57600080fd5b612546868287016122b9565b925050604061255786828701612250565b9150509250925092565b60008060006060848603121561257657600080fd5b600084013567ffffffffffffffff81111561259057600080fd5b61259c868287016122b9565b935050602084013567ffffffffffffffff8111156125b957600080fd5b6125c5868287016122b9565b925050604084013567ffffffffffffffff8111156125e257600080fd5b6125ee868287016122b9565b9150509250925092565b6000806040838503121561260b57600080fd5b600083013567ffffffffffffffff81111561262557600080fd5b612631858286016122b9565b9250506020612642858286016122e3565b9150509250929050565b600061265883836127a0565b905092915050565b612669816133d6565b82525050565b61268061267b826133d6565b6134b2565b82525050565b600061269182613363565b61269b8185613386565b9350836020820285016126ad85613339565b8060005b858110156126e8578484038952816126c9858261264c565b94506126d483613379565b925060208a019950506001810190506126b1565b50829750879550505050505092915050565b612703816133e8565b82525050565b612712816133f4565b82525050565b61272181613428565b82525050565b6127308161344c565b82525050565b60006127418261336e565b61274b81856133a8565b935061275b81856020860161347f565b612764816134d8565b840191505092915050565b600061277a8261336e565b61278481856133b9565b935061279481856020860161347f565b80840191505092915050565b6000815460018116600081146127bd57600181146127e357612827565b607f60028304166127ce8187613397565b955060ff198316865260208601935050612827565b600282046127f18187613397565b95506127fc8561334e565b60005b8281101561281e578154818901526001820191506020810190506127ff565b80880195505050505b505092915050565b60008154600181166000811461284c5760018114612871576128b5565b607f600283041661285d81876133b9565b955060ff19831686528086019350506128b5565b6002820461287f81876133b9565b955061288a8561334e565b60005b828110156128ac5781548189015260018201915060208101905061288d565b82880195505050505b505092915050565b60006128ca600e836133a8565b91507f434120726567697374657265642e0000000000000000000000000000000000006000830152602082019050919050565b600061290a601c836133a8565b91507f54686973206163636f756e7420616c726561647920696e207573652e000000006000830152602082019050919050565b600061294a6013836133a8565b91507f5065726d697373696f6e2064656e696e65642e000000000000000000000000006000830152602082019050919050565b600061298a601f836133a8565b91507f5468697320646f6d61696e20444350206e6f7420726567697374657265642e006000830152602082019050919050565b60006129ca6019836133a8565b91507f4e6f207075726368617365207265636f726420666f756e642e000000000000006000830152602082019050919050565b6000612a0a600a836133a8565b91507f5250206973737565642e000000000000000000000000000000000000000000006000830152602082019050919050565b6000612a4a6058836133a8565b91507f556e636f6e6669726d6564207075726368617365207265636f7264206578697360008301527f742e205265766f6b65207075726368617365207265636f7264206265666f726560208301527f20627579696e6720616761696e206966206e65656465642e00000000000000006040830152606082019050919050565b6000612ad66012836133a8565b91507f446f6d61696e20726567697374657265642e00000000000000000000000000006000830152602082019050919050565b6000612b166029836133a8565b91507f54686973207265706f727420686173206265656e207375626d6974746564206260008301527f79206f74686572732e00000000000000000000000000000000000000000000006020830152604082019050919050565b6000612b7c601c836133a8565b91507f434120696e76616c6964202f206e6f7420726567697374657265642e000000006000830152602082019050919050565b6000612bbc602d836133a8565b91507f4341206e6f742072656769737465726564202f2057726f6e672041646472657360008301527f7320666f72207468652043412e000000000000000000000000000000000000006020830152604082019050919050565b6000612c22601c836133a8565b91507f4e6f7420656e6f75676820726567697374726174696f6e206665652e000000006000830152602082019050919050565b6000612c626015836133a8565b91507f43657274205265706f72742072657665616c65642e00000000000000000000006000830152602082019050919050565b6000612ca26016836133a8565b91507f43657274205265706f727420636f6d6d69747465642e000000000000000000006000830152602082019050919050565b6000612ce26018836133a8565b91507f4e6f7420656e6f756768205250206973737565206665652e00000000000000006000830152602082019050919050565b6000612d226014836133a8565b91507f5250207075726368617365207265766f6b65642e0000000000000000000000006000830152602082019050919050565b6000612d62603a836133a8565b91507f4e6f7420656e6f75676820726567697374726174696f6e206665652e202f205460008301527f6869732044435020616c726561647920726567697374657265640000000000006020830152604082019050919050565b6000612dc8601f836133a8565b91507f506c65617365207375626d6974206578616374207265706f7274206665652e006000830152602082019050919050565b612e048161341e565b82525050565b6000612e16828461276f565b915081905092915050565b6000612e2d828561276f565b9150612e39828461276f565b91508190509392505050565b6000612e51828761276f565b9150612e5d828661276f565b9150612e69828561276f565b9150612e75828461266f565b60148201915081905095945050505050565b6000612e93828461282f565b915081905092915050565b6000612eaa828561282f565b9150612eb6828461282f565b91508190509392505050565b6000606082019050612ed76000830186612660565b612ee46020830185612660565b612ef16040830184612660565b949350505050565b60006060820190508181036000830152612f138186612686565b90508181036020830152612f278185612736565b90508181036040830152612f3b8184612686565b9050949350505050565b6000602082019050612f5a6000830184612709565b92915050565b60006020820190508181036000830152612f7a8184612736565b905092915050565b60006060820190508181036000830152612f9c8186612736565b9050612fab6020830185612660565b612fb860408301846126fa565b949350505050565b60006080820190508181036000830152612fda8187612736565b9050612fe960208301866126fa565b612ff66040830185612660565b6130036060830184612718565b95945050505050565b600060608201905081810360008301526130268186612736565b9050818103602083015261303a8185612736565b90506130496040830184612727565b949350505050565b6000602082019050818103600083015261306a816128bd565b9050919050565b6000602082019050818103600083015261308a816128fd565b9050919050565b600060208201905081810360008301526130aa8161293d565b9050919050565b600060208201905081810360008301526130ca8161297d565b9050919050565b600060208201905081810360008301526130ea816129bd565b9050919050565b6000602082019050818103600083015261310a816129fd565b9050919050565b6000602082019050818103600083015261312a81612a3d565b9050919050565b6000602082019050818103600083015261314a81612ac9565b9050919050565b6000602082019050818103600083015261316a81612b09565b9050919050565b6000602082019050818103600083015261318a81612b6f565b9050919050565b600060208201905081810360008301526131aa81612baf565b9050919050565b600060208201905081810360008301526131ca81612c15565b9050919050565b600060208201905081810360008301526131ea81612c55565b9050919050565b6000602082019050818103600083015261320a81612c95565b9050919050565b6000602082019050818103600083015261322a81612cd5565b9050919050565b6000602082019050818103600083015261324a81612d15565b9050919050565b6000602082019050818103600083015261326a81612d55565b9050919050565b6000602082019050818103600083015261328a81612dbb565b9050919050565b60006020820190506132a66000830184612dfb565b92915050565b6000604051905081810181811067ffffffffffffffff821117156132d3576132d26134d6565b5b8060405250919050565b600067ffffffffffffffff8211156132f8576132f76134d6565b5b602082029050602081019050919050565b600067ffffffffffffffff821115613324576133236134d6565b5b601f19601f8301169050602081019050919050565b60008190508160005260206000209050919050565b60008190508160005260206000209050919050565b600081549050919050565b600081519050919050565b6000600182019050919050565b600082825260208201905092915050565b600082825260208201905092915050565b600082825260208201905092915050565b600081905092915050565b60006133cf826133fe565b9050919050565b60006133e1826133fe565b9050919050565b60008115159050919050565b6000819050919050565b600073ffffffffffffffffffffffffffffffffffffffff82169050919050565b6000819050919050565b60006134338261343a565b9050919050565b6000613445826133fe565b9050919050565b60006134578261345e565b9050919050565b6000613469826133fe565b9050919050565b82818337600083830152505050565b60005b8381101561349d578082015181840152602081019050613482565b838111156134ac576000848401525b50505050565b60006134bd826134c4565b9050919050565b60006134cf826134e9565b9050919050565bfe5b6000601f19601f8301169050919050565b60008160601b9050919050565b6134ff816133c4565b811461350a57600080fd5b50565b613516816133e8565b811461352157600080fd5b50565b61352d816133f4565b811461353857600080fd5b50565b6135448161341e565b811461354f57600080fd5b5056fea26469706673582212200f2943622c021a84aa08ed4e45a3d024ba20a65c898cd0739cf7fdb16129d0a664736f6c63430007060033",
  "immutableReferences": {},
  "source": "// SPDX-License-Identifier: MIT\n\npragma solidity ^0.7;\npragma experimental ABIEncoderV2;\n\nimport \"./DCPChecker.sol\";\nimport \"./RPReaction.sol\";\n\ncontract IKP {\n\n    struct CA {\n        string name;\n        address payable paymentAccount;\n        bool inUse;\n    }\n\n    struct DCP {\n        string domainName;\n        bool inUse;\n        address payable paymentAccount;\n        DCPChecker checker;\n    }\n\n    struct RP {\n        string domainName;\n        string cname;\n        RPReaction reaction;\n    }\n\n    struct PendingRpPurchase {\n        string cname;\n        address domainAddr;\n        address rpReactionAddr;\n        uint amount;\n        uint purchasedAt;\n    }\n\n    struct ReportRecord {\n      address reporter;\n      uint reportedAt;\n    }\n\n    uint public reportFee = 5 ether; \n    uint public rpMinimumPrice = 15 ether; \n    uint public domainRegisterFee = 1 ether;\n    uint public registerCaFee = 1 ether;\n\n    mapping(string => CA) public caList;\n    mapping(string => string[]) public caPubKeys;\n    mapping(string => uint) public caBalances;\n\n    mapping(string => DCP) public dcpList;\n    mapping(string => string[]) public dcpPubKeys;\n\n    mapping(bytes32 => RP) public rpList;\n    mapping(bytes32 => PendingRpPurchase) private pendingRpPurchaseMapping;\n    mapping(bytes32 => ReportRecord) private reportRecords;\n    \n    event NewTransaction(string message);\n    event RpPurchased(bytes32 rpHash);\n    function registerCa (string memory _name, string[] memory _pks) public payable {\n        require(msg.value >= registerCaFee, \"Not enough registration fee.\");\n        require(!caList[_name].inUse, \"This account already in use.\");\n        CA memory newCa = CA({\n            name: _name,\n            inUse: true,\n            paymentAccount: msg.sender\n        });\n        caList[_name] = newCa;\n        caPubKeys[_name] = _pks;\n        caBalances[_name] = msg.value;\n        emit NewTransaction('Domain registered.');\n    }\n    //Use \"getRpHash\" to obtain rpHash to query desired RP status\n    function getRpHash(string memory _dname, string memory _cname) public pure returns (bytes32 rpHash){\n      return keccak256(abi.encodePacked(_dname, _cname));\n    }\n\n    function registerDomain (string memory _name, address _checkerFunctionAddress, string[] memory _ligitimateKeys) public payable {\n        require(!dcpList[_name].inUse && msg.value >= domainRegisterFee, \"Not enough registration fee. / This DCP already registered\");\n        DCP memory newDcp = DCP({\n            inUse: true,\n            domainName: _name,\n            paymentAccount: msg.sender,\n            checker: DCPChecker(_checkerFunctionAddress)\n        });\n        dcpList[_name] = newDcp;\n        dcpPubKeys[_name] = _ligitimateKeys;\n        emit NewTransaction('CA registered.');\n    }\n\n    function issueRp (string memory _dname, string memory _cname, address _reactionContractAddress) public payable {\n        require(msg.value >= rpMinimumPrice, \"Not enough RP issue fee.\");\n\n        bytes32 _rpHash = keccak256(abi.encodePacked(_dname, _cname));\n        require((keccak256(abi.encodePacked(_cname)) == keccak256(abi.encodePacked(pendingRpPurchaseMapping[_rpHash].cname))\n         && _reactionContractAddress == pendingRpPurchaseMapping[_rpHash].rpReactionAddr)\n          && (msg.sender == caList[_cname].paymentAccount)\n            , \"CA not registered / Wrong Address for the CA.\");\n\n        RP memory rp = RP({\n          domainName: _dname,\n          cname: _cname,\n          reaction: RPReaction(_reactionContractAddress)\n        });\n\n        rpList[_rpHash] = rp;\n        caBalances[_cname] += msg.value;\n        msg.sender.transfer(pendingRpPurchaseMapping[_rpHash].amount);\n        delete pendingRpPurchaseMapping[_rpHash];\n\n        emit NewTransaction('RP issued.');\n    }\n\n    function purchaseRp (string memory _dname, string memory _cname, address _reactionContractAddress) public payable returns (bytes32 rpHash) {\n      require(keccak256((abi.encodePacked(_dname))) == keccak256(abi.encodePacked(dcpList[_dname].domainName)), \"This domain DCP not registered.\");\n      require(keccak256((abi.encodePacked(_cname))) == keccak256(abi.encodePacked(caList[_cname].name)), \"CA invalid / not registered.\");\n      bytes32 _rpHash = keccak256(abi.encodePacked(_dname, _cname));\n      require(pendingRpPurchaseMapping[_rpHash].purchasedAt == 0, \"Unconfirmed purchase record exist. Revoke purchase record before buying again if needed.\");\n      PendingRpPurchase memory newPendingRpPurchase = PendingRpPurchase({ cname:_cname, amount:msg.value, domainAddr: msg.sender, purchasedAt: block.timestamp, rpReactionAddr:_reactionContractAddress });\n      pendingRpPurchaseMapping[_rpHash] = newPendingRpPurchase;\n\n      emit RpPurchased(_rpHash);\n      return _rpHash;\n    }\n\n    function revokeUnconfirmedRpPurchase(bytes32 _rpHash) public {\n      require(msg.sender == pendingRpPurchaseMapping[_rpHash].domainAddr, \"No purchase record found.\");\n      msg.sender.transfer(pendingRpPurchaseMapping[_rpHash].amount);\n      delete pendingRpPurchaseMapping[_rpHash];\n      emit NewTransaction('RP purchase revoked.');\n    }\n\n\n    function commitReport (string memory _dname, string memory _cname, string memory _key) public payable {\n        require(msg.value == reportFee, \"Please submit exact report fee.\");\n        bytes32 _reportHash = keccak256(abi.encodePacked(_dname, _cname, _key, msg.sender));\n        require(reportRecords[_reportHash].reporter == address(0), \"This report has been submitted by others.\");\n        reportRecords[_reportHash] = ReportRecord({ reporter: msg.sender, reportedAt: block.timestamp });\n        emit NewTransaction('Cert Report committed.');\n\n    }\n\n    function revealReport (string memory _dname, string memory _cname, string memory _key) public {\n        require(reportRecords[keccak256(abi.encodePacked(_dname, _cname, _key, msg.sender))].reporter == msg.sender, \"Permission denined.\");\n        bytes32 _rpHash = keccak256(abi.encodePacked(_dname, _cname)); \n        if (keccak256(abi.encodePacked(rpList[_rpHash].domainName)) != keccak256(abi.encodePacked(_dname))) {\n            msg.sender.transfer(reportFee);\n            return;\n        }\n        bytes32 dnameCnameHash = keccak256(abi.encodePacked(_dname, _cname));\n        bytes32 ligitimateDnameCnameHash = keccak256(abi.encodePacked(rpList[_rpHash].domainName, rpList[_rpHash].cname));\n\n        if(dnameCnameHash != ligitimateDnameCnameHash) {\n          delete reportRecords[keccak256(abi.encodePacked(_dname, _cname, _key, msg.sender))];\n          return;\n        }\n\n        bool isCertValid = dcpList[_dname].checker.check(dcpPubKeys[_dname], _key, caPubKeys[_cname]);\n\n        if(isCertValid) {\n          delete reportRecords[keccak256(abi.encodePacked(_dname, _cname, _key, msg.sender))];\n          return;\n        }\n\n        rpList[_rpHash].reaction.trigger{value:rpMinimumPrice}(\n          msg.sender, \n          caList[_cname].paymentAccount,\n\t\t\t\t\tdcpList[_dname].paymentAccount\n\t\t\t\t);\n\n        caBalances[_cname] -= rpMinimumPrice;\n        delete rpList[_rpHash];\n        delete reportRecords[keccak256(abi.encodePacked(_dname, _cname, _key, msg.sender))];\n        emit NewTransaction('Cert Report revealed.');\n    }\n\n}\n",
  "sourcePath": "C:/Users/chanc/Documents/devlopment/babel_webpack_starter/src/contracts/IKP.sol",
  "compiler": {
    "name": "solc",
    "version": "0.7.6+commit.7338295f.Emscripten.clang"
  },
  "schemaVersion": "3.3.4",
  "updatedAt": "2021-04-10T19:19:47.875Z",
  "networkType": "ethereum",
  "devdoc": {
    "kind": "dev",
    "methods": {},
    "version": 1
  },
  "userdoc": {
    "kind": "user",
    "methods": {},
    "version": 1
  }
}