{
  "contractName": "IKP",
  "abi": [
    {
      "anonymous": false,
      "inputs": [
        {
          "indexed": false,
          "internalType": "string",
          "name": "message",
          "type": "string"
        }
      ],
      "name": "NewTransaction",
      "type": "event"
    },
    {
      "anonymous": false,
      "inputs": [
        {
          "indexed": false,
          "internalType": "bytes32",
          "name": "rpHash",
          "type": "bytes32"
        }
      ],
      "name": "RpPurchased",
      "type": "event"
    },
    {
      "inputs": [
        {
          "internalType": "string",
          "name": "",
          "type": "string"
        }
      ],
      "name": "caBalances",
      "outputs": [
        {
          "internalType": "uint256",
          "name": "",
          "type": "uint256"
        }
      ],
      "stateMutability": "view",
      "type": "function",
      "constant": true
    },
    {
      "inputs": [
        {
          "internalType": "string",
          "name": "",
          "type": "string"
        }
      ],
      "name": "caList",
      "outputs": [
        {
          "internalType": "string",
          "name": "name",
          "type": "string"
        },
        {
          "internalType": "address payable",
          "name": "paymentAccount",
          "type": "address"
        },
        {
          "internalType": "bool",
          "name": "inUse",
          "type": "bool"
        }
      ],
      "stateMutability": "view",
      "type": "function",
      "constant": true
    },
    {
      "inputs": [
        {
          "internalType": "string",
          "name": "",
          "type": "string"
        },
        {
          "internalType": "uint256",
          "name": "",
          "type": "uint256"
        }
      ],
      "name": "caPubKeys",
      "outputs": [
        {
          "internalType": "string",
          "name": "",
          "type": "string"
        }
      ],
      "stateMutability": "view",
      "type": "function",
      "constant": true
    },
    {
      "inputs": [
        {
          "internalType": "string",
          "name": "",
          "type": "string"
        }
      ],
      "name": "dcpList",
      "outputs": [
        {
          "internalType": "string",
          "name": "domainName",
          "type": "string"
        },
        {
          "internalType": "bool",
          "name": "inUse",
          "type": "bool"
        },
        {
          "internalType": "address payable",
          "name": "paymentAccount",
          "type": "address"
        },
        {
          "internalType": "contract DCPChecker",
          "name": "checker",
          "type": "address"
        }
      ],
      "stateMutability": "view",
      "type": "function",
      "constant": true
    },
    {
      "inputs": [
        {
          "internalType": "string",
          "name": "",
          "type": "string"
        },
        {
          "internalType": "uint256",
          "name": "",
          "type": "uint256"
        }
      ],
      "name": "dcpPubKeys",
      "outputs": [
        {
          "internalType": "string",
          "name": "",
          "type": "string"
        }
      ],
      "stateMutability": "view",
      "type": "function",
      "constant": true
    },
    {
      "inputs": [],
      "name": "domainRegisterFee",
      "outputs": [
        {
          "internalType": "uint256",
          "name": "",
          "type": "uint256"
        }
      ],
      "stateMutability": "view",
      "type": "function",
      "constant": true
    },
    {
      "inputs": [],
      "name": "registerCaFee",
      "outputs": [
        {
          "internalType": "uint256",
          "name": "",
          "type": "uint256"
        }
      ],
      "stateMutability": "view",
      "type": "function",
      "constant": true
    },
    {
      "inputs": [],
      "name": "reportFee",
      "outputs": [
        {
          "internalType": "uint256",
          "name": "",
          "type": "uint256"
        }
      ],
      "stateMutability": "view",
      "type": "function",
      "constant": true
    },
    {
      "inputs": [
        {
          "internalType": "bytes32",
          "name": "",
          "type": "bytes32"
        }
      ],
      "name": "rpList",
      "outputs": [
        {
          "internalType": "string",
          "name": "domainName",
          "type": "string"
        },
        {
          "internalType": "string",
          "name": "cname",
          "type": "string"
        },
        {
          "internalType": "contract RPReaction",
          "name": "reaction",
          "type": "address"
        }
      ],
      "stateMutability": "view",
      "type": "function",
      "constant": true
    },
    {
      "inputs": [],
      "name": "rpMinimumPrice",
      "outputs": [
        {
          "internalType": "uint256",
          "name": "",
          "type": "uint256"
        }
      ],
      "stateMutability": "view",
      "type": "function",
      "constant": true
    },
    {
      "inputs": [
        {
          "internalType": "string",
          "name": "_name",
          "type": "string"
        },
        {
          "internalType": "string[]",
          "name": "_pks",
          "type": "string[]"
        }
      ],
      "name": "registerCa",
      "outputs": [],
      "stateMutability": "payable",
      "type": "function",
      "payable": true
    },
    {
      "inputs": [
        {
          "internalType": "string",
          "name": "_dname",
          "type": "string"
        },
        {
          "internalType": "string",
          "name": "_cname",
          "type": "string"
        }
      ],
      "name": "getRpHash",
      "outputs": [
        {
          "internalType": "bytes32",
          "name": "rpHash",
          "type": "bytes32"
        }
      ],
      "stateMutability": "pure",
      "type": "function",
      "constant": true
    },
    {
      "inputs": [
        {
          "internalType": "string",
          "name": "_name",
          "type": "string"
        },
        {
          "internalType": "address",
          "name": "_checkerFunctionAddress",
          "type": "address"
        },
        {
          "internalType": "string[]",
          "name": "_ligitimateKeys",
          "type": "string[]"
        }
      ],
      "name": "registerDomain",
      "outputs": [],
      "stateMutability": "payable",
      "type": "function",
      "payable": true
    },
    {
      "inputs": [
        {
          "internalType": "string",
          "name": "_dname",
          "type": "string"
        },
        {
          "internalType": "string",
          "name": "_cname",
          "type": "string"
        },
        {
          "internalType": "address",
          "name": "_reactionContractAddress",
          "type": "address"
        }
      ],
      "name": "issueRp",
      "outputs": [],
      "stateMutability": "payable",
      "type": "function",
      "payable": true
    },
    {
      "inputs": [
        {
          "internalType": "string",
          "name": "_dname",
          "type": "string"
        },
        {
          "internalType": "string",
          "name": "_cname",
          "type": "string"
        },
        {
          "internalType": "address",
          "name": "_reactionContractAddress",
          "type": "address"
        }
      ],
      "name": "purchaseRp",
      "outputs": [
        {
          "internalType": "bytes32",
          "name": "rpHash",
          "type": "bytes32"
        }
      ],
      "stateMutability": "payable",
      "type": "function",
      "payable": true
    },
    {
      "inputs": [
        {
          "internalType": "bytes32",
          "name": "_rpHash",
          "type": "bytes32"
        }
      ],
      "name": "revokeUnconfirmedRpPurchase",
      "outputs": [],
      "stateMutability": "nonpayable",
      "type": "function"
    },
    {
      "inputs": [
        {
          "internalType": "string",
          "name": "_dname",
          "type": "string"
        },
        {
          "internalType": "string",
          "name": "_cname",
          "type": "string"
        },
        {
          "internalType": "string",
          "name": "_key",
          "type": "string"
        }
      ],
      "name": "commitReport",
      "outputs": [],
      "stateMutability": "payable",
      "type": "function",
      "payable": true
    },
    {
      "inputs": [
        {
          "internalType": "string",
          "name": "_dname",
          "type": "string"
        },
        {
          "internalType": "string",
          "name": "_cname",
          "type": "string"
        },
        {
          "internalType": "string",
          "name": "_key",
          "type": "string"
        }
      ],
      "name": "revealReport",
      "outputs": [],
      "stateMutability": "nonpayable",
      "type": "function"
    }
  ],
  "bytecode": "0x60806040526729a2241af62c000060005567d02ab486cedc0000600155670de0b6b3a7640000600255670de0b6b3a764000060035534801561004057600080fd5b506135de806100506000396000f3fe6080604052600436106101095760003560e01c8063824a309311610095578063c831725211610064578063c8317252146103a2578063ccb7e7a5146103cb578063eccc7bd7146103e7578063ef58e95714610417578063f35905f21461044257610109565b8063824a3093146102ec578063927eab521461032b578063ae6df37814610347578063c0ca2b6e1461036357610109565b80633190fdaa116100dc5780633190fdaa146101ca57806351c1f58f1461020a5780636f5a9c6d1461023557806378549246146102725780637ed4ef20146102af57610109565b80631e23fc8a1461010e57806323e8bae31461014b57806327d350b3146101765780632f383d05146101a1575b600080fd5b34801561011a57600080fd5b50610135600480360381019061013091906124cc565b61045e565b6040516101429190612f9b565b60405180910390f35b34801561015757600080fd5b50610160610491565b60405161016d91906132e7565b60405180910390f35b34801561018257600080fd5b5061018b610497565b60405161019891906132e7565b60405180910390f35b3480156101ad57600080fd5b506101c860048036038101906101c391906125b7565b61049d565b005b3480156101d657600080fd5b506101f160048036038101906101ec91906123a0565b610bbf565b6040516102019493929190613016565b60405180910390f35b34801561021657600080fd5b5061021f610cea565b60405161022c91906132e7565b60405180910390f35b34801561024157600080fd5b5061025c600480360381019061025791906123a0565b610cf0565b60405161026991906132e7565b60405180910390f35b34801561027e57600080fd5b506102996004803603810190610294919061264e565b610d1e565b6040516102a69190612fb6565b60405180910390f35b3480156102bb57600080fd5b506102d660048036038101906102d1919061264e565b610dfd565b6040516102e39190612fb6565b60405180910390f35b3480156102f857600080fd5b50610313600480360381019061030e91906123a0565b610edc565b60405161032293929190612fd8565b60405180910390f35b61034560048036038101906103409190612460565b610fe1565b005b610361600480360381019061035c91906125b7565b6111e0565b005b34801561036f57600080fd5b5061038a60048036038101906103859190612377565b6113c7565b60405161039993929190613062565b60405180910390f35b3480156103ae57600080fd5b506103c960048036038101906103c49190612377565b611541565b005b6103e560048036038101906103e091906123e1565b6116fe565b005b61040160048036038101906103fc9190612538565b61192a565b60405161040e9190612f9b565b60405180910390f35b34801561042357600080fd5b5061042c611c7e565b60405161043991906132e7565b60405180910390f35b61045c60048036038101906104579190612538565b611c84565b005b60008282604051602001610473929190612e77565b60405160208183030381529060405280519060200120905092915050565b60005481565b60025481565b3373ffffffffffffffffffffffffffffffffffffffff16600b6000858585336040516020016104cf9493929190612e9b565b60405160208183030381529060405280519060200120815260200190815260200160002060000160009054906101000a900473ffffffffffffffffffffffffffffffffffffffff1673ffffffffffffffffffffffffffffffffffffffff161461056d576040517f08c379a0000000000000000000000000000000000000000000000000000000008152600401610564906130e7565b60405180910390fd5b60008383604051602001610582929190612e77565b604051602081830303815290604052805190602001209050836040516020016105ab9190612e60565b60405160208183030381529060405280519060200120600960008381526020019081526020016000206000016040516020016105e79190612edd565b604051602081830303815290604052805190602001201415806106765750826040516020016106169190612e60565b6040516020818303038152906040528051906020012060048460405161063c9190612e60565b908152602001604051809103902060000160405160200161065d9190612edd565b6040516020818303038152906040528051906020012014155b156106ca573373ffffffffffffffffffffffffffffffffffffffff166108fc6000549081150290604051600060405180830381858888f193505050501580156106c3573d6000803e3d6000fd5b5050610bba565b600084846040516020016106df929190612e77565b60405160208183030381529060405280519060200120905060006009600084815260200190815260200160002060000160096000858152602001908152602001600020600101604051602001610736929190612ef4565b6040516020818303038152906040528051906020012090508082146107ce57600b6000878787336040516020016107709493929190612e9b565b604051602081830303815290604052805190602001208152602001908152602001600020600080820160006101000a81549073ffffffffffffffffffffffffffffffffffffffff021916905560018201600090555050505050610bba565b60006007876040516107e09190612e60565b908152602001604051809103902060020160009054906101000a900473ffffffffffffffffffffffffffffffffffffffff1673ffffffffffffffffffffffffffffffffffffffff16638414c63c60088960405161083d9190612e60565b90815260200160405180910390208760058a60405161085c9190612e60565b90815260200160405180910390206040518463ffffffff1660e01b815260040161088893929190612f4f565b60206040518083038186803b1580156108a057600080fd5b505afa1580156108b4573d6000803e3d6000fd5b505050506040513d601f19601f820116820180604052508101906108d8919061234e565b9050801561095a57600b6000888888336040516020016108fb9493929190612e9b565b604051602081830303815290604052805190602001208152602001908152602001600020600080820160006101000a81549073ffffffffffffffffffffffffffffffffffffffff02191690556001820160009055505050505050610bba565b6009600085815260200190815260200160002060020160009054906101000a900473ffffffffffffffffffffffffffffffffffffffff1673ffffffffffffffffffffffffffffffffffffffff16635a90e4c36001543360048a6040516109c09190612e60565b908152602001604051809103902060010160009054906101000a900473ffffffffffffffffffffffffffffffffffffffff1660078c604051610a029190612e60565b908152602001604051809103902060010160019054906101000a900473ffffffffffffffffffffffffffffffffffffffff166040518563ffffffff1660e01b8152600401610a5293929190612f18565b6000604051808303818588803b158015610a6b57600080fd5b505af1158015610a7f573d6000803e3d6000fd5b5050505050600154600687604051610a979190612e60565b9081526020016040518091039020600082825403925050819055506009600085815260200190815260200160002060008082016000610ad69190612094565b600182016000610ae69190612094565b6002820160006101000a81549073ffffffffffffffffffffffffffffffffffffffff02191690555050600b600088888833604051602001610b2a9493929190612e9b565b604051602081830303815290604052805190602001208152602001908152602001600020600080820160006101000a81549073ffffffffffffffffffffffffffffffffffffffff0219169055600182016000905550507f08f81b6e9109fad00df4c1e4c8017ba4cb67013034439d71e57399c83aa23f3c604051610bad90613227565b60405180910390a1505050505b505050565b600781805160208101820180518482526020830160208501208183528095505050505050600091509050806000018054600181600116156101000203166002900480601f016020809104026020016040519081016040528092919081815260200182805460018160011615610100020316600290048015610c815780601f10610c5657610100808354040283529160200191610c81565b820191906000526020600020905b815481529060010190602001808311610c6457829003601f168201915b5050505050908060010160009054906101000a900460ff16908060010160019054906101000a900473ffffffffffffffffffffffffffffffffffffffff16908060020160009054906101000a900473ffffffffffffffffffffffffffffffffffffffff16905084565b60035481565b6006818051602081018201805184825260208301602085012081835280955050505050506000915090505481565b6005828051602081018201805184825260208301602085012081835280955050505050508181548110610d5057600080fd5b90600052602060002001600091509150508054600181600116156101000203166002900480601f016020809104026020016040519081016040528092919081815260200182805460018160011615610100020316600290048015610df55780601f10610dca57610100808354040283529160200191610df5565b820191906000526020600020905b815481529060010190602001808311610dd857829003601f168201915b505050505081565b6008828051602081018201805184825260208301602085012081835280955050505050508181548110610e2f57600080fd5b90600052602060002001600091509150508054600181600116156101000203166002900480601f016020809104026020016040519081016040528092919081815260200182805460018160011615610100020316600290048015610ed45780601f10610ea957610100808354040283529160200191610ed4565b820191906000526020600020905b815481529060010190602001808311610eb757829003601f168201915b505050505081565b600481805160208101820180518482526020830160208501208183528095505050505050600091509050806000018054600181600116156101000203166002900480601f016020809104026020016040519081016040528092919081815260200182805460018160011615610100020316600290048015610f9e5780601f10610f7357610100808354040283529160200191610f9e565b820191906000526020600020905b815481529060010190602001808311610f8157829003601f168201915b5050505050908060010160009054906101000a900473ffffffffffffffffffffffffffffffffffffffff16908060010160149054906101000a900460ff16905083565b600354341015611026576040517f08c379a000000000000000000000000000000000000000000000000000000000815260040161101d90613207565b60405180910390fd5b6004826040516110369190612e60565b908152602001604051809103902060010160149054906101000a900460ff1615611095576040517f08c379a000000000000000000000000000000000000000000000000000000000815260040161108c906130c7565b60405180910390fd5b600060405180606001604052808481526020013373ffffffffffffffffffffffffffffffffffffffff168152602001600115158152509050806004846040516110de9190612e60565b908152602001604051809103902060008201518160000190805190602001906111089291906120dc565b5060208201518160010160006101000a81548173ffffffffffffffffffffffffffffffffffffffff021916908373ffffffffffffffffffffffffffffffffffffffff16021790555060408201518160010160146101000a81548160ff021916908315150217905550905050816005846040516111849190612e60565b908152602001604051809103902090805190602001906111a592919061216a565b507f08f81b6e9109fad00df4c1e4c8017ba4cb67013034439d71e57399c83aa23f3c6040516111d390613187565b60405180910390a1505050565b6000543414611224576040517f08c379a000000000000000000000000000000000000000000000000000000000815260040161121b906132c7565b60405180910390fd5b60008383833360405160200161123d9493929190612e9b565b604051602081830303815290604052805190602001209050600073ffffffffffffffffffffffffffffffffffffffff16600b600083815260200190815260200160002060000160009054906101000a900473ffffffffffffffffffffffffffffffffffffffff1673ffffffffffffffffffffffffffffffffffffffff16146112fa576040517f08c379a00000000000000000000000000000000000000000000000000000000081526004016112f1906131a7565b60405180910390fd5b60405180604001604052803373ffffffffffffffffffffffffffffffffffffffff16815260200142815250600b600083815260200190815260200160002060008201518160000160006101000a81548173ffffffffffffffffffffffffffffffffffffffff021916908373ffffffffffffffffffffffffffffffffffffffff160217905550602082015181600101559050507f08f81b6e9109fad00df4c1e4c8017ba4cb67013034439d71e57399c83aa23f3c6040516113b990613247565b60405180910390a150505050565b6009602052806000526040600020600091509050806000018054600181600116156101000203166002900480601f0160208091040260200160405190810160405280929190818152602001828054600181600116156101000203166002900480156114735780601f1061144857610100808354040283529160200191611473565b820191906000526020600020905b81548152906001019060200180831161145657829003601f168201915b505050505090806001018054600181600116156101000203166002900480601f0160208091040260200160405190810160405280929190818152602001828054600181600116156101000203166002900480156115115780601f106114e657610100808354040283529160200191611511565b820191906000526020600020905b8154815290600101906020018083116114f457829003601f168201915b5050505050908060020160009054906101000a900473ffffffffffffffffffffffffffffffffffffffff16905083565b600a600082815260200190815260200160002060010160009054906101000a900473ffffffffffffffffffffffffffffffffffffffff1673ffffffffffffffffffffffffffffffffffffffff163373ffffffffffffffffffffffffffffffffffffffff16146115e5576040517f08c379a00000000000000000000000000000000000000000000000000000000081526004016115dc90613127565b60405180910390fd5b3373ffffffffffffffffffffffffffffffffffffffff166108fc600a6000848152602001908152602001600020600301549081150290604051600060405180830381858888f19350505050158015611641573d6000803e3d6000fd5b50600a6000828152602001908152602001600020600080820160006116669190612094565b6001820160006101000a81549073ffffffffffffffffffffffffffffffffffffffff02191690556002820160006101000a81549073ffffffffffffffffffffffffffffffffffffffff02191690556003820160009055600482016000905550507f08f81b6e9109fad00df4c1e4c8017ba4cb67013034439d71e57399c83aa23f3c6040516116f390613287565b60405180910390a150565b60078360405161170e9190612e60565b908152602001604051809103902060010160009054906101000a900460ff1615801561173c57506002543410155b61177b576040517f08c379a0000000000000000000000000000000000000000000000000000000008152600401611772906132a7565b60405180910390fd5b600060405180608001604052808581526020016001151581526020013373ffffffffffffffffffffffffffffffffffffffff1681526020018473ffffffffffffffffffffffffffffffffffffffff168152509050806007856040516117e09190612e60565b9081526020016040518091039020600082015181600001908051906020019061180a9291906120dc565b5060208201518160010160006101000a81548160ff02191690831515021790555060408201518160010160016101000a81548173ffffffffffffffffffffffffffffffffffffffff021916908373ffffffffffffffffffffffffffffffffffffffff16021790555060608201518160020160006101000a81548173ffffffffffffffffffffffffffffffffffffffff021916908373ffffffffffffffffffffffffffffffffffffffff160217905550905050816008856040516118cd9190612e60565b908152602001604051809103902090805190602001906118ee92919061216a565b507f08f81b6e9109fad00df4c1e4c8017ba4cb67013034439d71e57399c83aa23f3c60405161191c906130a7565b60405180910390a150505050565b600060078460405161193c9190612e60565b908152602001604051809103902060000160405160200161195d9190612edd565b60405160208183030381529060405280519060200120846040516020016119849190612e60565b60405160208183030381529060405280519060200120146119da576040517f08c379a00000000000000000000000000000000000000000000000000000000081526004016119d190613107565b60405180910390fd5b6004836040516119ea9190612e60565b9081526020016040518091039020600001604051602001611a0b9190612edd565b6040516020818303038152906040528051906020012083604051602001611a329190612e60565b6040516020818303038152906040528051906020012014611a88576040517f08c379a0000000000000000000000000000000000000000000000000000000008152600401611a7f906131c7565b60405180910390fd5b60008484604051602001611a9d929190612e77565b6040516020818303038152906040528051906020012090506000600a60008381526020019081526020016000206004015414611b0e576040517f08c379a0000000000000000000000000000000000000000000000000000000008152600401611b0590613167565b60405180910390fd5b60006040518060a001604052808681526020013373ffffffffffffffffffffffffffffffffffffffff1681526020018573ffffffffffffffffffffffffffffffffffffffff16815260200134815260200142815250905080600a60008481526020019081526020016000206000820151816000019080519060200190611b959291906120dc565b5060208201518160010160006101000a81548173ffffffffffffffffffffffffffffffffffffffff021916908373ffffffffffffffffffffffffffffffffffffffff16021790555060408201518160020160006101000a81548173ffffffffffffffffffffffffffffffffffffffff021916908373ffffffffffffffffffffffffffffffffffffffff16021790555060608201518160030155608082015181600401559050507f9629970d207a2d036264908ea7f3ccec0cfd6c8f8d2f64c5459ee1e1d62543d982604051611c6a9190612f9b565b60405180910390a181925050509392505050565b60015481565b600154341015611cc9576040517f08c379a0000000000000000000000000000000000000000000000000000000008152600401611cc090613267565b60405180910390fd5b60008383604051602001611cde929190612e77565b604051602081830303815290604052805190602001209050600a6000828152602001908152602001600020600001604051602001611d1c9190612edd565b6040516020818303038152906040528051906020012083604051602001611d439190612e60565b60405160208183030381529060405280519060200120148015611dc75750600a600082815260200190815260200160002060020160009054906101000a900473ffffffffffffffffffffffffffffffffffffffff1673ffffffffffffffffffffffffffffffffffffffff168273ffffffffffffffffffffffffffffffffffffffff16145b8015611e3f5750600483604051611dde9190612e60565b908152602001604051809103902060010160009054906101000a900473ffffffffffffffffffffffffffffffffffffffff1673ffffffffffffffffffffffffffffffffffffffff163373ffffffffffffffffffffffffffffffffffffffff16145b611e7e576040517f08c379a0000000000000000000000000000000000000000000000000000000008152600401611e75906131e7565b60405180910390fd5b600060405180606001604052808681526020018581526020018473ffffffffffffffffffffffffffffffffffffffff16815250905080600960008481526020019081526020016000206000820151816000019080519060200190611ee39291906120dc565b506020820151816001019080519060200190611f009291906120dc565b5060408201518160020160006101000a81548173ffffffffffffffffffffffffffffffffffffffff021916908373ffffffffffffffffffffffffffffffffffffffff16021790555090505034600685604051611f5c9190612e60565b9081526020016040518091039020600082825401925050819055503373ffffffffffffffffffffffffffffffffffffffff166108fc600a6000858152602001908152602001600020600301549081150290604051600060405180830381858888f19350505050158015611fd3573d6000803e3d6000fd5b50600a600083815260200190815260200160002060008082016000611ff89190612094565b6001820160006101000a81549073ffffffffffffffffffffffffffffffffffffffff02191690556002820160006101000a81549073ffffffffffffffffffffffffffffffffffffffff02191690556003820160009055600482016000905550507f08f81b6e9109fad00df4c1e4c8017ba4cb67013034439d71e57399c83aa23f3c60405161208590613147565b60405180910390a15050505050565b50805460018160011615610100020316600290046000825580601f106120ba57506120d9565b601f0160209004906000526020600020908101906120d891906121ca565b5b50565b828054600181600116156101000203166002900490600052602060002090601f0160209004810192826121125760008555612159565b82601f1061212b57805160ff1916838001178555612159565b82800160010185558215612159579182015b8281111561215857825182559160200191906001019061213d565b5b50905061216691906121ca565b5090565b8280548282559060005260206000209081019282156121b9579160200282015b828111156121b85782518290805190602001906121a89291906120dc565b509160200191906001019061218a565b5b5090506121c691906121e7565b5090565b5b808211156121e35760008160009055506001016121cb565b5090565b5b8082111561220757600081816121fe9190612094565b506001016121e8565b5090565b600061221e61221984613333565b613302565b9050808382526020820190508260005b8581101561225e5781358501612244888261230f565b84526020840193506020830192505060018101905061222e565b5050509392505050565b600061227b6122768461335f565b613302565b90508281526020810184848401111561229357600080fd5b61229e8482856134c6565b509392505050565b6000813590506122b58161354c565b92915050565b600082601f8301126122cc57600080fd5b81356122dc84826020860161220b565b91505092915050565b6000815190506122f481613563565b92915050565b6000813590506123098161357a565b92915050565b600082601f83011261232057600080fd5b8135612330848260208601612268565b91505092915050565b60008135905061234881613591565b92915050565b60006020828403121561236057600080fd5b600061236e848285016122e5565b91505092915050565b60006020828403121561238957600080fd5b6000612397848285016122fa565b91505092915050565b6000602082840312156123b257600080fd5b600082013567ffffffffffffffff8111156123cc57600080fd5b6123d88482850161230f565b91505092915050565b6000806000606084860312156123f657600080fd5b600084013567ffffffffffffffff81111561241057600080fd5b61241c8682870161230f565b935050602061242d868287016122a6565b925050604084013567ffffffffffffffff81111561244a57600080fd5b612456868287016122bb565b9150509250925092565b6000806040838503121561247357600080fd5b600083013567ffffffffffffffff81111561248d57600080fd5b6124998582860161230f565b925050602083013567ffffffffffffffff8111156124b657600080fd5b6124c2858286016122bb565b9150509250929050565b600080604083850312156124df57600080fd5b600083013567ffffffffffffffff8111156124f957600080fd5b6125058582860161230f565b925050602083013567ffffffffffffffff81111561252257600080fd5b61252e8582860161230f565b9150509250929050565b60008060006060848603121561254d57600080fd5b600084013567ffffffffffffffff81111561256757600080fd5b6125738682870161230f565b935050602084013567ffffffffffffffff81111561259057600080fd5b61259c8682870161230f565b92505060406125ad868287016122a6565b9150509250925092565b6000806000606084860312156125cc57600080fd5b600084013567ffffffffffffffff8111156125e657600080fd5b6125f28682870161230f565b935050602084013567ffffffffffffffff81111561260f57600080fd5b61261b8682870161230f565b925050604084013567ffffffffffffffff81111561263857600080fd5b6126448682870161230f565b9150509250925092565b6000806040838503121561266157600080fd5b600083013567ffffffffffffffff81111561267b57600080fd5b6126878582860161230f565b925050602061269885828601612339565b9150509250929050565b60006126ae83836127f6565b905092915050565b6126bf8161342c565b82525050565b6126d66126d18261342c565b613508565b82525050565b60006126e7826133b9565b6126f181856133dc565b9350836020820285016127038561338f565b8060005b8581101561273e5784840389528161271f85826126a2565b945061272a836133cf565b925060208a01995050600181019050612707565b50829750879550505050505092915050565b6127598161343e565b82525050565b6127688161344a565b82525050565b6127778161347e565b82525050565b612786816134a2565b82525050565b6000612797826133c4565b6127a181856133fe565b93506127b18185602086016134d5565b6127ba8161352e565b840191505092915050565b60006127d0826133c4565b6127da818561340f565b93506127ea8185602086016134d5565b80840191505092915050565b60008154600181166000811461281357600181146128395761287d565b607f600283041661282481876133ed565b955060ff19831686526020860193505061287d565b6002820461284781876133ed565b9550612852856133a4565b60005b8281101561287457815481890152600182019150602081019050612855565b80880195505050505b505092915050565b6000815460018116600081146128a257600181146128c75761290b565b607f60028304166128b3818761340f565b955060ff198316865280860193505061290b565b600282046128d5818761340f565b95506128e0856133a4565b60005b82811015612902578154818901526001820191506020810190506128e3565b82880195505050505b505092915050565b6000612920600e836133fe565b91507f434120726567697374657265642e0000000000000000000000000000000000006000830152602082019050919050565b6000612960601c836133fe565b91507f54686973206163636f756e7420616c726561647920696e207573652e000000006000830152602082019050919050565b60006129a06013836133fe565b91507f5065726d697373696f6e2064656e696e65642e000000000000000000000000006000830152602082019050919050565b60006129e0601f836133fe565b91507f5468697320646f6d61696e20444350206e6f7420726567697374657265642e006000830152602082019050919050565b6000612a206019836133fe565b91507f4e6f207075726368617365207265636f726420666f756e642e000000000000006000830152602082019050919050565b6000612a60600a836133fe565b91507f5250206973737565642e000000000000000000000000000000000000000000006000830152602082019050919050565b6000612aa06058836133fe565b91507f556e636f6e6669726d6564207075726368617365207265636f7264206578697360008301527f742e205265766f6b65207075726368617365207265636f7264206265666f726560208301527f20627579696e6720616761696e206966206e65656465642e00000000000000006040830152606082019050919050565b6000612b2c6012836133fe565b91507f446f6d61696e20726567697374657265642e00000000000000000000000000006000830152602082019050919050565b6000612b6c6029836133fe565b91507f54686973207265706f727420686173206265656e207375626d6974746564206260008301527f79206f74686572732e00000000000000000000000000000000000000000000006020830152604082019050919050565b6000612bd2601c836133fe565b91507f434120696e76616c6964202f206e6f7420726567697374657265642e000000006000830152602082019050919050565b6000612c12602d836133fe565b91507f4341206e6f742072656769737465726564202f2057726f6e672041646472657360008301527f7320666f72207468652043412e000000000000000000000000000000000000006020830152604082019050919050565b6000612c78601c836133fe565b91507f4e6f7420656e6f75676820726567697374726174696f6e206665652e000000006000830152602082019050919050565b6000612cb86015836133fe565b91507f43657274205265706f72742072657665616c65642e00000000000000000000006000830152602082019050919050565b6000612cf86016836133fe565b91507f43657274205265706f727420636f6d6d69747465642e000000000000000000006000830152602082019050919050565b6000612d386018836133fe565b91507f4e6f7420656e6f756768205250206973737565206665652e00000000000000006000830152602082019050919050565b6000612d786014836133fe565b91507f5250207075726368617365207265766f6b65642e0000000000000000000000006000830152602082019050919050565b6000612db8603a836133fe565b91507f4e6f7420656e6f75676820726567697374726174696f6e206665652e202f205460008301527f6869732044435020616c726561647920726567697374657265640000000000006020830152604082019050919050565b6000612e1e601f836133fe565b91507f506c65617365207375626d6974206578616374207265706f7274206665652e006000830152602082019050919050565b612e5a81613474565b82525050565b6000612e6c82846127c5565b915081905092915050565b6000612e8382856127c5565b9150612e8f82846127c5565b91508190509392505050565b6000612ea782876127c5565b9150612eb382866127c5565b9150612ebf82856127c5565b9150612ecb82846126c5565b60148201915081905095945050505050565b6000612ee98284612885565b915081905092915050565b6000612f008285612885565b9150612f0c8284612885565b91508190509392505050565b6000606082019050612f2d60008301866126b6565b612f3a60208301856126b6565b612f4760408301846126b6565b949350505050565b60006060820190508181036000830152612f6981866126dc565b90508181036020830152612f7d818561278c565b90508181036040830152612f9181846126dc565b9050949350505050565b6000602082019050612fb0600083018461275f565b92915050565b60006020820190508181036000830152612fd0818461278c565b905092915050565b60006060820190508181036000830152612ff2818661278c565b905061300160208301856126b6565b61300e6040830184612750565b949350505050565b60006080820190508181036000830152613030818761278c565b905061303f6020830186612750565b61304c60408301856126b6565b613059606083018461276e565b95945050505050565b6000606082019050818103600083015261307c818661278c565b90508181036020830152613090818561278c565b905061309f604083018461277d565b949350505050565b600060208201905081810360008301526130c081612913565b9050919050565b600060208201905081810360008301526130e081612953565b9050919050565b6000602082019050818103600083015261310081612993565b9050919050565b60006020820190508181036000830152613120816129d3565b9050919050565b6000602082019050818103600083015261314081612a13565b9050919050565b6000602082019050818103600083015261316081612a53565b9050919050565b6000602082019050818103600083015261318081612a93565b9050919050565b600060208201905081810360008301526131a081612b1f565b9050919050565b600060208201905081810360008301526131c081612b5f565b9050919050565b600060208201905081810360008301526131e081612bc5565b9050919050565b6000602082019050818103600083015261320081612c05565b9050919050565b6000602082019050818103600083015261322081612c6b565b9050919050565b6000602082019050818103600083015261324081612cab565b9050919050565b6000602082019050818103600083015261326081612ceb565b9050919050565b6000602082019050818103600083015261328081612d2b565b9050919050565b600060208201905081810360008301526132a081612d6b565b9050919050565b600060208201905081810360008301526132c081612dab565b9050919050565b600060208201905081810360008301526132e081612e11565b9050919050565b60006020820190506132fc6000830184612e51565b92915050565b6000604051905081810181811067ffffffffffffffff821117156133295761332861352c565b5b8060405250919050565b600067ffffffffffffffff82111561334e5761334d61352c565b5b602082029050602081019050919050565b600067ffffffffffffffff82111561337a5761337961352c565b5b601f19601f8301169050602081019050919050565b60008190508160005260206000209050919050565b60008190508160005260206000209050919050565b600081549050919050565b600081519050919050565b6000600182019050919050565b600082825260208201905092915050565b600082825260208201905092915050565b600082825260208201905092915050565b600081905092915050565b600061342582613454565b9050919050565b600061343782613454565b9050919050565b60008115159050919050565b6000819050919050565b600073ffffffffffffffffffffffffffffffffffffffff82169050919050565b6000819050919050565b600061348982613490565b9050919050565b600061349b82613454565b9050919050565b60006134ad826134b4565b9050919050565b60006134bf82613454565b9050919050565b82818337600083830152505050565b60005b838110156134f35780820151818401526020810190506134d8565b83811115613502576000848401525b50505050565b60006135138261351a565b9050919050565b60006135258261353f565b9050919050565bfe5b6000601f19601f8301169050919050565b60008160601b9050919050565b6135558161341a565b811461356057600080fd5b50565b61356c8161343e565b811461357757600080fd5b50565b6135838161344a565b811461358e57600080fd5b50565b61359a81613474565b81146135a557600080fd5b5056fea26469706673582212201655a7b60bc33301968f3380439ed28d645cc873382b81f234e0e87f65b3535c64736f6c63430007060033",
  "immutableReferences": {},
  "source": "// SPDX-License-Identifier: MIT\n\npragma solidity ^0.7;\npragma experimental ABIEncoderV2;\n\nimport \"./DCPChecker.sol\";\nimport \"./RPReaction.sol\";\n\ncontract IKP {\n\n    struct CA {\n        string name;\n        address payable paymentAccount;\n        bool inUse;\n    }\n\n    struct DCP {\n        string domainName;\n        bool inUse;\n        address payable paymentAccount;\n        DCPChecker checker;\n    }\n\n    struct RP {\n        string domainName;\n        string cname;\n        RPReaction reaction;\n    }\n\n    struct PendingRpPurchase {\n        string cname;\n        address domainAddr;\n        address rpReactionAddr;\n        uint amount;\n        uint purchasedAt;\n    }\n\n    struct ReportRecord {\n      address reporter;\n      uint reportedAt;\n    }\n\n    uint public reportFee = 3 ether; \n    uint public rpMinimumPrice = 15 ether; \n    uint public domainRegisterFee = 1 ether;\n    uint public registerCaFee = 1 ether;\n\n    mapping(string => CA) public caList;\n    mapping(string => string[]) public caPubKeys;\n    mapping(string => uint) public caBalances;\n\n    mapping(string => DCP) public dcpList;\n    mapping(string => string[]) public dcpPubKeys;\n\n    mapping(bytes32 => RP) public rpList;\n    mapping(bytes32 => PendingRpPurchase) private pendingRpPurchaseMapping;\n    mapping(bytes32 => ReportRecord) private reportRecords;\n    \n    event NewTransaction(string message);\n    event RpPurchased(bytes32 rpHash);\n    function registerCa (string memory _name, string[] memory _pks) public payable {\n        require(msg.value >= registerCaFee, \"Not enough registration fee.\");\n        require(!caList[_name].inUse, \"This account already in use.\");\n        CA memory newCa = CA({\n            name: _name,\n            inUse: true,\n            paymentAccount: msg.sender\n        });\n        caList[_name] = newCa;\n        caPubKeys[_name] = _pks;\n        emit NewTransaction('Domain registered.');\n    }\n    //Use \"getRpHash\" to obtain rpHash to query desired RP status\n    function getRpHash(string memory _dname, string memory _cname) public pure returns (bytes32 rpHash){\n      return keccak256(abi.encodePacked(_dname, _cname));\n    }\n\n    function registerDomain (string memory _name, address _checkerFunctionAddress, string[] memory _ligitimateKeys) public payable {\n        require(!dcpList[_name].inUse && msg.value >= domainRegisterFee, \"Not enough registration fee. / This DCP already registered\");\n        DCP memory newDcp = DCP({\n            inUse: true,\n            domainName: _name,\n            paymentAccount: msg.sender,\n            checker: DCPChecker(_checkerFunctionAddress)\n        });\n        dcpList[_name] = newDcp;\n        dcpPubKeys[_name] = _ligitimateKeys;\n        emit NewTransaction('CA registered.');\n    }\n\n    function issueRp (string memory _dname, string memory _cname, address _reactionContractAddress) public payable {\n        require(msg.value >= rpMinimumPrice, \"Not enough RP issue fee.\");\n\n        bytes32 _rpHash = keccak256(abi.encodePacked(_dname, _cname));\n        require((keccak256(abi.encodePacked(_cname)) == keccak256(abi.encodePacked(pendingRpPurchaseMapping[_rpHash].cname))\n         && _reactionContractAddress == pendingRpPurchaseMapping[_rpHash].rpReactionAddr)\n          && (msg.sender == caList[_cname].paymentAccount)\n            , \"CA not registered / Wrong Address for the CA.\");\n\n        RP memory rp = RP({\n          domainName: _dname,\n          cname: _cname,\n          reaction: RPReaction(_reactionContractAddress)\n        });\n\n        rpList[_rpHash] = rp;\n        caBalances[_cname] += msg.value;\n        msg.sender.transfer(pendingRpPurchaseMapping[_rpHash].amount);\n        delete pendingRpPurchaseMapping[_rpHash];\n\n        emit NewTransaction('RP issued.');\n    }\n\n    function purchaseRp (string memory _dname, string memory _cname, address _reactionContractAddress) public payable returns (bytes32 rpHash) {\n      require(keccak256((abi.encodePacked(_dname))) == keccak256(abi.encodePacked(dcpList[_dname].domainName)), \"This domain DCP not registered.\");\n      require(keccak256((abi.encodePacked(_cname))) == keccak256(abi.encodePacked(caList[_cname].name)), \"CA invalid / not registered.\");\n      bytes32 _rpHash = keccak256(abi.encodePacked(_dname, _cname));\n      require(pendingRpPurchaseMapping[_rpHash].purchasedAt == 0, \"Unconfirmed purchase record exist. Revoke purchase record before buying again if needed.\");\n      PendingRpPurchase memory newPendingRpPurchase = PendingRpPurchase({ cname:_cname, amount:msg.value, domainAddr: msg.sender, purchasedAt: block.timestamp, rpReactionAddr:_reactionContractAddress });\n      pendingRpPurchaseMapping[_rpHash] = newPendingRpPurchase;\n\n      emit RpPurchased(_rpHash);\n      return _rpHash;\n    }\n\n    function revokeUnconfirmedRpPurchase(bytes32 _rpHash) public {\n      require(msg.sender == pendingRpPurchaseMapping[_rpHash].domainAddr, \"No purchase record found.\");\n      msg.sender.transfer(pendingRpPurchaseMapping[_rpHash].amount);\n      delete pendingRpPurchaseMapping[_rpHash];\n      emit NewTransaction('RP purchase revoked.');\n    }\n\n\n    function commitReport (string memory _dname, string memory _cname, string memory _key) public payable {\n        require(msg.value == reportFee, \"Please submit exact report fee.\");\n        bytes32 _reportHash = keccak256(abi.encodePacked(_dname, _cname, _key, msg.sender));\n        require(reportRecords[_reportHash].reporter == address(0), \"This report has been submitted by others.\");\n        reportRecords[_reportHash] = ReportRecord({ reporter: msg.sender, reportedAt: block.timestamp });\n        emit NewTransaction('Cert Report committed.');\n\n    }\n\n    function revealReport (string memory _dname, string memory _cname, string memory _key) public {\n        require(reportRecords[keccak256(abi.encodePacked(_dname, _cname, _key, msg.sender))].reporter == msg.sender, \"Permission denined.\");\n        bytes32 _rpHash = keccak256(abi.encodePacked(_dname, _cname)); \n        if (keccak256(abi.encodePacked(rpList[_rpHash].domainName)) != keccak256(abi.encodePacked(_dname))\n          || keccak256(abi.encodePacked(caList[_cname].name)) != keccak256(abi.encodePacked(_cname)))\n         {\n            msg.sender.transfer(reportFee);\n            return;\n        }\n        bytes32 dnameCnameHash = keccak256(abi.encodePacked(_dname, _cname));\n        bytes32 ligitimateDnameCnameHash = keccak256(abi.encodePacked(rpList[_rpHash].domainName, rpList[_rpHash].cname));\n\n        if(dnameCnameHash != ligitimateDnameCnameHash) {\n          delete reportRecords[keccak256(abi.encodePacked(_dname, _cname, _key, msg.sender))];\n          return;\n        }\n\n        bool isCertValid = dcpList[_dname].checker.check(dcpPubKeys[_dname], _key, caPubKeys[_cname]);\n\n        if(isCertValid) {\n          delete reportRecords[keccak256(abi.encodePacked(_dname, _cname, _key, msg.sender))];\n          return;\n        }\n\n        rpList[_rpHash].reaction.trigger{value:rpMinimumPrice}(\n          msg.sender, \n          caList[_cname].paymentAccount,\n\t\t\t\t\tdcpList[_dname].paymentAccount\n\t\t\t\t);\n\n        caBalances[_cname] -= rpMinimumPrice;\n        delete rpList[_rpHash];\n        delete reportRecords[keccak256(abi.encodePacked(_dname, _cname, _key, msg.sender))];\n        emit NewTransaction('Cert Report revealed.');\n    }\n\n}\n",
  "sourcePath": "C:/Users/chanc/Documents/devlopment/babel_webpack_starter/src/contracts/IKP.sol",
  "compiler": {
    "name": "solc",
    "version": "0.7.6+commit.7338295f.Emscripten.clang"
  },
  "schemaVersion": "3.3.4",
  "updatedAt": "2021-04-11T09:51:59.871Z",
  "networkType": "ethereum",
  "devdoc": {
    "kind": "dev",
    "methods": {},
    "version": 1
  },
  "userdoc": {
    "kind": "user",
    "methods": {},
    "version": 1
  }
}