{
  "contractName": "IKP",
  "abi": [
    {
      "anonymous": false,
      "inputs": [
        {
          "indexed": false,
          "internalType": "string",
          "name": "message",
          "type": "string"
        }
      ],
      "name": "NewTransaction",
      "type": "event"
    },
    {
      "anonymous": false,
      "inputs": [
        {
          "indexed": false,
          "internalType": "bytes32",
          "name": "rpHash",
          "type": "bytes32"
        }
      ],
      "name": "RpPurchased",
      "type": "event"
    },
    {
      "inputs": [
        {
          "internalType": "string",
          "name": "",
          "type": "string"
        }
      ],
      "name": "caBalances",
      "outputs": [
        {
          "internalType": "uint256",
          "name": "",
          "type": "uint256"
        }
      ],
      "stateMutability": "view",
      "type": "function",
      "constant": true
    },
    {
      "inputs": [
        {
          "internalType": "string",
          "name": "",
          "type": "string"
        }
      ],
      "name": "caList",
      "outputs": [
        {
          "internalType": "string",
          "name": "name",
          "type": "string"
        },
        {
          "internalType": "address payable",
          "name": "paymentAccount",
          "type": "address"
        },
        {
          "internalType": "bool",
          "name": "inUse",
          "type": "bool"
        }
      ],
      "stateMutability": "view",
      "type": "function",
      "constant": true
    },
    {
      "inputs": [
        {
          "internalType": "string",
          "name": "",
          "type": "string"
        },
        {
          "internalType": "uint256",
          "name": "",
          "type": "uint256"
        }
      ],
      "name": "caPubKeys",
      "outputs": [
        {
          "internalType": "string",
          "name": "",
          "type": "string"
        }
      ],
      "stateMutability": "view",
      "type": "function",
      "constant": true
    },
    {
      "inputs": [
        {
          "internalType": "string",
          "name": "",
          "type": "string"
        }
      ],
      "name": "dcpList",
      "outputs": [
        {
          "internalType": "string",
          "name": "domainName",
          "type": "string"
        },
        {
          "internalType": "bool",
          "name": "inUse",
          "type": "bool"
        },
        {
          "internalType": "address payable",
          "name": "paymentAccount",
          "type": "address"
        },
        {
          "internalType": "contract DCPChecker",
          "name": "checker",
          "type": "address"
        }
      ],
      "stateMutability": "view",
      "type": "function",
      "constant": true
    },
    {
      "inputs": [
        {
          "internalType": "string",
          "name": "",
          "type": "string"
        },
        {
          "internalType": "uint256",
          "name": "",
          "type": "uint256"
        }
      ],
      "name": "dcpPubKeys",
      "outputs": [
        {
          "internalType": "string",
          "name": "",
          "type": "string"
        }
      ],
      "stateMutability": "view",
      "type": "function",
      "constant": true
    },
    {
      "inputs": [],
      "name": "domainRegisterFee",
      "outputs": [
        {
          "internalType": "uint256",
          "name": "",
          "type": "uint256"
        }
      ],
      "stateMutability": "view",
      "type": "function",
      "constant": true
    },
    {
      "inputs": [],
      "name": "registerCaFee",
      "outputs": [
        {
          "internalType": "uint256",
          "name": "",
          "type": "uint256"
        }
      ],
      "stateMutability": "view",
      "type": "function",
      "constant": true
    },
    {
      "inputs": [],
      "name": "reportFee",
      "outputs": [
        {
          "internalType": "uint256",
          "name": "",
          "type": "uint256"
        }
      ],
      "stateMutability": "view",
      "type": "function",
      "constant": true
    },
    {
      "inputs": [
        {
          "internalType": "bytes32",
          "name": "",
          "type": "bytes32"
        }
      ],
      "name": "rpList",
      "outputs": [
        {
          "internalType": "string",
          "name": "domainName",
          "type": "string"
        },
        {
          "internalType": "string",
          "name": "cname",
          "type": "string"
        },
        {
          "internalType": "contract RPReaction",
          "name": "reaction",
          "type": "address"
        }
      ],
      "stateMutability": "view",
      "type": "function",
      "constant": true
    },
    {
      "inputs": [],
      "name": "rpMinimumPrice",
      "outputs": [
        {
          "internalType": "uint256",
          "name": "",
          "type": "uint256"
        }
      ],
      "stateMutability": "view",
      "type": "function",
      "constant": true
    },
    {
      "inputs": [
        {
          "internalType": "string",
          "name": "_name",
          "type": "string"
        },
        {
          "internalType": "string[]",
          "name": "_pks",
          "type": "string[]"
        }
      ],
      "name": "registerCa",
      "outputs": [],
      "stateMutability": "payable",
      "type": "function",
      "payable": true
    },
    {
      "inputs": [
        {
          "internalType": "string",
          "name": "_dname",
          "type": "string"
        },
        {
          "internalType": "string",
          "name": "_cname",
          "type": "string"
        }
      ],
      "name": "getRpHash",
      "outputs": [
        {
          "internalType": "bytes32",
          "name": "rpHash",
          "type": "bytes32"
        }
      ],
      "stateMutability": "pure",
      "type": "function",
      "constant": true
    },
    {
      "inputs": [
        {
          "internalType": "string",
          "name": "_dname",
          "type": "string"
        }
      ],
      "name": "getDcpPubKeys",
      "outputs": [
        {
          "internalType": "string[]",
          "name": "",
          "type": "string[]"
        }
      ],
      "stateMutability": "view",
      "type": "function",
      "constant": true
    },
    {
      "inputs": [
        {
          "internalType": "string",
          "name": "_cname",
          "type": "string"
        }
      ],
      "name": "getCaPubKeys",
      "outputs": [
        {
          "internalType": "string[]",
          "name": "",
          "type": "string[]"
        }
      ],
      "stateMutability": "view",
      "type": "function",
      "constant": true
    },
    {
      "inputs": [
        {
          "internalType": "string",
          "name": "_name",
          "type": "string"
        },
        {
          "internalType": "address",
          "name": "_checkerFunctionAddress",
          "type": "address"
        },
        {
          "internalType": "string[]",
          "name": "_ligitimateKeys",
          "type": "string[]"
        }
      ],
      "name": "registerDomain",
      "outputs": [],
      "stateMutability": "payable",
      "type": "function",
      "payable": true
    },
    {
      "inputs": [
        {
          "internalType": "string",
          "name": "_dname",
          "type": "string"
        },
        {
          "internalType": "string",
          "name": "_cname",
          "type": "string"
        },
        {
          "internalType": "address",
          "name": "_reactionContractAddress",
          "type": "address"
        }
      ],
      "name": "issueRp",
      "outputs": [],
      "stateMutability": "payable",
      "type": "function",
      "payable": true
    },
    {
      "inputs": [
        {
          "internalType": "string",
          "name": "_dname",
          "type": "string"
        },
        {
          "internalType": "string",
          "name": "_cname",
          "type": "string"
        },
        {
          "internalType": "address",
          "name": "_reactionContractAddress",
          "type": "address"
        }
      ],
      "name": "purchaseRp",
      "outputs": [
        {
          "internalType": "bytes32",
          "name": "rpHash",
          "type": "bytes32"
        }
      ],
      "stateMutability": "payable",
      "type": "function",
      "payable": true
    },
    {
      "inputs": [
        {
          "internalType": "bytes32",
          "name": "_rpHash",
          "type": "bytes32"
        }
      ],
      "name": "revokeUnconfirmedRpPurchase",
      "outputs": [],
      "stateMutability": "nonpayable",
      "type": "function"
    },
    {
      "inputs": [
        {
          "internalType": "string",
          "name": "_dname",
          "type": "string"
        },
        {
          "internalType": "string",
          "name": "_cname",
          "type": "string"
        },
        {
          "internalType": "string",
          "name": "_key",
          "type": "string"
        }
      ],
      "name": "commitReport",
      "outputs": [],
      "stateMutability": "payable",
      "type": "function",
      "payable": true
    },
    {
      "inputs": [
        {
          "internalType": "string",
          "name": "_dname",
          "type": "string"
        },
        {
          "internalType": "string",
          "name": "_cname",
          "type": "string"
        },
        {
          "internalType": "string",
          "name": "_key",
          "type": "string"
        }
      ],
      "name": "revealReport",
      "outputs": [],
      "stateMutability": "nonpayable",
      "type": "function"
    }
  ],
  "bytecode": "0x6080604052670de0b6b3a7640000600055670de0b6b3a76400006001556729a2241af62c000060025567d02ab486cedc000060035534801561004057600080fd5b50613adc806100506000396000f3fe60806040526004361061011f5760003560e01c8063824a3093116100a0578063ccb7e7a511610064578063ccb7e7a51461041e578063eccc7bd71461043a578063ef58e9571461046a578063f35905f214610495578063f9d1a466146104b15761011f565b8063824a30931461033f578063927eab521461037e578063ae6df3781461039a578063c0ca2b6e146103b6578063c8317252146103f55761011f565b806351c1f58f116100e757806351c1f58f1461022057806369a81f081461024b5780636f5a9c6d1461028857806378549246146102c55780637ed4ef20146103025761011f565b80631e23fc8a1461012457806323e8bae31461016157806327d350b31461018c5780632f383d05146101b75780633190fdaa146101e0575b600080fd5b34801561013057600080fd5b5061014b600480360381019061014691906127d8565b6104ee565b6040516101589190613431565b60405180910390f35b34801561016d57600080fd5b50610176610521565b60405161018391906137bd565b60405180910390f35b34801561019857600080fd5b506101a1610527565b6040516101ae91906137bd565b60405180910390f35b3480156101c357600080fd5b506101de60048036038101906101d991906128c3565b61052d565b005b3480156101ec57600080fd5b50610207600480360381019061020291906126ac565b610c4f565b60405161021794939291906134ac565b60405180910390f35b34801561022c57600080fd5b50610235610d7a565b60405161024291906137bd565b60405180910390f35b34801561025757600080fd5b50610272600480360381019061026d91906126ac565b610d80565b60405161027f91906133c3565b60405180910390f35b34801561029457600080fd5b506102af60048036038101906102aa91906126ac565b610e87565b6040516102bc91906137bd565b60405180910390f35b3480156102d157600080fd5b506102ec60048036038101906102e7919061295a565b610eb5565b6040516102f9919061344c565b60405180910390f35b34801561030e57600080fd5b506103296004803603810190610324919061295a565b610f94565b604051610336919061344c565b60405180910390f35b34801561034b57600080fd5b50610366600480360381019061036191906126ac565b611073565b6040516103759392919061346e565b60405180910390f35b6103986004803603810190610393919061276c565b611178565b005b6103b460048036038101906103af91906128c3565b611377565b005b3480156103c257600080fd5b506103dd60048036038101906103d89190612683565b61155e565b6040516103ec939291906134f8565b60405180910390f35b34801561040157600080fd5b5061041c60048036038101906104179190612683565b6116d8565b005b610438600480360381019061043391906126ed565b611895565b005b610454600480360381019061044f9190612844565b611ac1565b6040516104619190613431565b60405180910390f35b34801561047657600080fd5b5061047f611e15565b60405161048c91906137bd565b60405180910390f35b6104af60048036038101906104aa9190612844565b611e1b565b005b3480156104bd57600080fd5b506104d860048036038101906104d391906126ac565b612299565b6040516104e591906133c3565b60405180910390f35b600082826040516020016105039291906132eb565b60405160208183030381529060405280519060200120905092915050565b60025481565b60005481565b3373ffffffffffffffffffffffffffffffffffffffff16600b60008585853360405160200161055f949392919061330f565b60405160208183030381529060405280519060200120815260200190815260200160002060000160009054906101000a900473ffffffffffffffffffffffffffffffffffffffff1673ffffffffffffffffffffffffffffffffffffffff16146105fd576040517f08c379a00000000000000000000000000000000000000000000000000000000081526004016105f49061357d565b60405180910390fd5b600083836040516020016106129291906132eb565b6040516020818303038152906040528051906020012090508360405160200161063b91906132d4565b60405160208183030381529060405280519060200120600960008381526020019081526020016000206000016040516020016106779190613351565b604051602081830303815290604052805190602001201415806107065750826040516020016106a691906132d4565b604051602081830303815290604052805190602001206004846040516106cc91906132d4565b90815260200160405180910390206000016040516020016106ed9190613351565b6040516020818303038152906040528051906020012014155b1561075a573373ffffffffffffffffffffffffffffffffffffffff166108fc6002549081150290604051600060405180830381858888f19350505050158015610753573d6000803e3d6000fd5b5050610c4a565b6000848460405160200161076f9291906132eb565b604051602081830303815290604052805190602001209050600060096000848152602001908152602001600020600001600960008581526020019081526020016000206001016040516020016107c6929190613368565b60405160208183030381529060405280519060200120905080821461085e57600b600087878733604051602001610800949392919061330f565b604051602081830303815290604052805190602001208152602001908152602001600020600080820160006101000a81549073ffffffffffffffffffffffffffffffffffffffff021916905560018201600090555050505050610c4a565b600060078760405161087091906132d4565b908152602001604051809103902060020160009054906101000a900473ffffffffffffffffffffffffffffffffffffffff1673ffffffffffffffffffffffffffffffffffffffff16638414c63c6008896040516108cd91906132d4565b90815260200160405180910390208760058a6040516108ec91906132d4565b90815260200160405180910390206040518463ffffffff1660e01b8152600401610918939291906133e5565b60206040518083038186803b15801561093057600080fd5b505afa158015610944573d6000803e3d6000fd5b505050506040513d601f19601f82011682018060405250810190610968919061265a565b905080156109ea57600b60008888883360405160200161098b949392919061330f565b604051602081830303815290604052805190602001208152602001908152602001600020600080820160006101000a81549073ffffffffffffffffffffffffffffffffffffffff02191690556001820160009055505050505050610c4a565b6009600085815260200190815260200160002060020160009054906101000a900473ffffffffffffffffffffffffffffffffffffffff1673ffffffffffffffffffffffffffffffffffffffff16635a90e4c36003543360048a604051610a5091906132d4565b908152602001604051809103902060010160009054906101000a900473ffffffffffffffffffffffffffffffffffffffff1660078c604051610a9291906132d4565b908152602001604051809103902060010160019054906101000a900473ffffffffffffffffffffffffffffffffffffffff166040518563ffffffff1660e01b8152600401610ae29392919061338c565b6000604051808303818588803b158015610afb57600080fd5b505af1158015610b0f573d6000803e3d6000fd5b5050505050600354600687604051610b2791906132d4565b9081526020016040518091039020600082825403925050819055506009600085815260200190815260200160002060008082016000610b6691906123a0565b600182016000610b7691906123a0565b6002820160006101000a81549073ffffffffffffffffffffffffffffffffffffffff02191690555050600b600088888833604051602001610bba949392919061330f565b604051602081830303815290604052805190602001208152602001908152602001600020600080820160006101000a81549073ffffffffffffffffffffffffffffffffffffffff0219169055600182016000905550507f08f81b6e9109fad00df4c1e4c8017ba4cb67013034439d71e57399c83aa23f3c604051610c3d906136fd565b60405180910390a1505050505b505050565b600781805160208101820180518482526020830160208501208183528095505050505050600091509050806000018054600181600116156101000203166002900480601f016020809104026020016040519081016040528092919081815260200182805460018160011615610100020316600290048015610d115780601f10610ce657610100808354040283529160200191610d11565b820191906000526020600020905b815481529060010190602001808311610cf457829003601f168201915b5050505050908060010160009054906101000a900460ff16908060010160019054906101000a900473ffffffffffffffffffffffffffffffffffffffff16908060020160009054906101000a900473ffffffffffffffffffffffffffffffffffffffff16905084565b60015481565b6060600882604051610d9291906132d4565b9081526020016040518091039020805480602002602001604051908101604052809291908181526020016000905b82821015610e7c578382906000526020600020018054600181600116156101000203166002900480601f016020809104026020016040519081016040528092919081815260200182805460018160011615610100020316600290048015610e685780601f10610e3d57610100808354040283529160200191610e68565b820191906000526020600020905b815481529060010190602001808311610e4b57829003601f168201915b505050505081526020019060010190610dc0565b505050509050919050565b6006818051602081018201805184825260208301602085012081835280955050505050506000915090505481565b6005828051602081018201805184825260208301602085012081835280955050505050508181548110610ee757600080fd5b90600052602060002001600091509150508054600181600116156101000203166002900480601f016020809104026020016040519081016040528092919081815260200182805460018160011615610100020316600290048015610f8c5780601f10610f6157610100808354040283529160200191610f8c565b820191906000526020600020905b815481529060010190602001808311610f6f57829003601f168201915b505050505081565b6008828051602081018201805184825260208301602085012081835280955050505050508181548110610fc657600080fd5b90600052602060002001600091509150508054600181600116156101000203166002900480601f01602080910402602001604051908101604052809291908181526020018280546001816001161561010002031660029004801561106b5780601f106110405761010080835404028352916020019161106b565b820191906000526020600020905b81548152906001019060200180831161104e57829003601f168201915b505050505081565b600481805160208101820180518482526020830160208501208183528095505050505050600091509050806000018054600181600116156101000203166002900480601f0160208091040260200160405190810160405280929190818152602001828054600181600116156101000203166002900480156111355780601f1061110a57610100808354040283529160200191611135565b820191906000526020600020905b81548152906001019060200180831161111857829003601f168201915b5050505050908060010160009054906101000a900473ffffffffffffffffffffffffffffffffffffffff16908060010160149054906101000a900460ff16905083565b6001543410156111bd576040517f08c379a00000000000000000000000000000000000000000000000000000000081526004016111b4906136dd565b60405180910390fd5b6004826040516111cd91906132d4565b908152602001604051809103902060010160149054906101000a900460ff161561122c576040517f08c379a00000000000000000000000000000000000000000000000000000000081526004016112239061355d565b60405180910390fd5b600060405180606001604052808481526020013373ffffffffffffffffffffffffffffffffffffffff1681526020016001151581525090508060048460405161127591906132d4565b9081526020016040518091039020600082015181600001908051906020019061129f9291906123e8565b5060208201518160010160006101000a81548173ffffffffffffffffffffffffffffffffffffffff021916908373ffffffffffffffffffffffffffffffffffffffff16021790555060408201518160010160146101000a81548160ff0219169083151502179055509050508160058460405161131b91906132d4565b9081526020016040518091039020908051906020019061133c929190612476565b507f08f81b6e9109fad00df4c1e4c8017ba4cb67013034439d71e57399c83aa23f3c60405161136a9061361d565b60405180910390a1505050565b60025434146113bb576040517f08c379a00000000000000000000000000000000000000000000000000000000081526004016113b29061379d565b60405180910390fd5b6000838383336040516020016113d4949392919061330f565b604051602081830303815290604052805190602001209050600073ffffffffffffffffffffffffffffffffffffffff16600b600083815260200190815260200160002060000160009054906101000a900473ffffffffffffffffffffffffffffffffffffffff1673ffffffffffffffffffffffffffffffffffffffff1614611491576040517f08c379a00000000000000000000000000000000000000000000000000000000081526004016114889061367d565b60405180910390fd5b60405180604001604052803373ffffffffffffffffffffffffffffffffffffffff16815260200142815250600b600083815260200190815260200160002060008201518160000160006101000a81548173ffffffffffffffffffffffffffffffffffffffff021916908373ffffffffffffffffffffffffffffffffffffffff160217905550602082015181600101559050507f08f81b6e9109fad00df4c1e4c8017ba4cb67013034439d71e57399c83aa23f3c6040516115509061371d565b60405180910390a150505050565b6009602052806000526040600020600091509050806000018054600181600116156101000203166002900480601f01602080910402602001604051908101604052809291908181526020018280546001816001161561010002031660029004801561160a5780601f106115df5761010080835404028352916020019161160a565b820191906000526020600020905b8154815290600101906020018083116115ed57829003601f168201915b505050505090806001018054600181600116156101000203166002900480601f0160208091040260200160405190810160405280929190818152602001828054600181600116156101000203166002900480156116a85780601f1061167d576101008083540402835291602001916116a8565b820191906000526020600020905b81548152906001019060200180831161168b57829003601f168201915b5050505050908060020160009054906101000a900473ffffffffffffffffffffffffffffffffffffffff16905083565b600a600082815260200190815260200160002060010160009054906101000a900473ffffffffffffffffffffffffffffffffffffffff1673ffffffffffffffffffffffffffffffffffffffff163373ffffffffffffffffffffffffffffffffffffffff161461177c576040517f08c379a0000000000000000000000000000000000000000000000000000000008152600401611773906135bd565b60405180910390fd5b3373ffffffffffffffffffffffffffffffffffffffff166108fc600a6000848152602001908152602001600020600301549081150290604051600060405180830381858888f193505050501580156117d8573d6000803e3d6000fd5b50600a6000828152602001908152602001600020600080820160006117fd91906123a0565b6001820160006101000a81549073ffffffffffffffffffffffffffffffffffffffff02191690556002820160006101000a81549073ffffffffffffffffffffffffffffffffffffffff02191690556003820160009055600482016000905550507f08f81b6e9109fad00df4c1e4c8017ba4cb67013034439d71e57399c83aa23f3c60405161188a9061375d565b60405180910390a150565b6007836040516118a591906132d4565b908152602001604051809103902060010160009054906101000a900460ff161580156118d357506000543410155b611912576040517f08c379a00000000000000000000000000000000000000000000000000000000081526004016119099061377d565b60405180910390fd5b600060405180608001604052808581526020016001151581526020013373ffffffffffffffffffffffffffffffffffffffff1681526020018473ffffffffffffffffffffffffffffffffffffffff1681525090508060078560405161197791906132d4565b908152602001604051809103902060008201518160000190805190602001906119a19291906123e8565b5060208201518160010160006101000a81548160ff02191690831515021790555060408201518160010160016101000a81548173ffffffffffffffffffffffffffffffffffffffff021916908373ffffffffffffffffffffffffffffffffffffffff16021790555060608201518160020160006101000a81548173ffffffffffffffffffffffffffffffffffffffff021916908373ffffffffffffffffffffffffffffffffffffffff16021790555090505081600885604051611a6491906132d4565b90815260200160405180910390209080519060200190611a85929190612476565b507f08f81b6e9109fad00df4c1e4c8017ba4cb67013034439d71e57399c83aa23f3c604051611ab39061353d565b60405180910390a150505050565b6000600784604051611ad391906132d4565b9081526020016040518091039020600001604051602001611af49190613351565b6040516020818303038152906040528051906020012084604051602001611b1b91906132d4565b6040516020818303038152906040528051906020012014611b71576040517f08c379a0000000000000000000000000000000000000000000000000000000008152600401611b689061359d565b60405180910390fd5b600483604051611b8191906132d4565b9081526020016040518091039020600001604051602001611ba29190613351565b6040516020818303038152906040528051906020012083604051602001611bc991906132d4565b6040516020818303038152906040528051906020012014611c1f576040517f08c379a0000000000000000000000000000000000000000000000000000000008152600401611c16906136bd565b60405180910390fd5b60008484604051602001611c349291906132eb565b6040516020818303038152906040528051906020012090506000600a60008381526020019081526020016000206004015414611ca5576040517f08c379a0000000000000000000000000000000000000000000000000000000008152600401611c9c906135fd565b60405180910390fd5b60006040518060a001604052808681526020013373ffffffffffffffffffffffffffffffffffffffff1681526020018573ffffffffffffffffffffffffffffffffffffffff16815260200134815260200142815250905080600a60008481526020019081526020016000206000820151816000019080519060200190611d2c9291906123e8565b5060208201518160010160006101000a81548173ffffffffffffffffffffffffffffffffffffffff021916908373ffffffffffffffffffffffffffffffffffffffff16021790555060408201518160020160006101000a81548173ffffffffffffffffffffffffffffffffffffffff021916908373ffffffffffffffffffffffffffffffffffffffff16021790555060608201518160030155608082015181600401559050507f9629970d207a2d036264908ea7f3ccec0cfd6c8f8d2f64c5459ee1e1d62543d982604051611e019190613431565b60405180910390a181925050509392505050565b60035481565b600354341015611e60576040517f08c379a0000000000000000000000000000000000000000000000000000000008152600401611e579061373d565b60405180910390fd5b60008383604051602001611e759291906132eb565b604051602081830303815290604052805190602001209050600a6000828152602001908152602001600020600001604051602001611eb39190613351565b6040516020818303038152906040528051906020012083604051602001611eda91906132d4565b6040516020818303038152906040528051906020012014611f30576040517f08c379a0000000000000000000000000000000000000000000000000000000008152600401611f279061365d565b60405180910390fd5b600a600082815260200190815260200160002060020160009054906101000a900473ffffffffffffffffffffffffffffffffffffffff1673ffffffffffffffffffffffffffffffffffffffff168273ffffffffffffffffffffffffffffffffffffffff1614611fd4576040517f08c379a0000000000000000000000000000000000000000000000000000000008152600401611fcb9061369d565b60405180910390fd5b600483604051611fe491906132d4565b908152602001604051809103902060010160009054906101000a900473ffffffffffffffffffffffffffffffffffffffff1673ffffffffffffffffffffffffffffffffffffffff163373ffffffffffffffffffffffffffffffffffffffff1614612083576040517f08c379a000000000000000000000000000000000000000000000000000000000815260040161207a9061363d565b60405180910390fd5b600060405180606001604052808681526020018581526020018473ffffffffffffffffffffffffffffffffffffffff168152509050806009600084815260200190815260200160002060008201518160000190805190602001906120e89291906123e8565b5060208201518160010190805190602001906121059291906123e8565b5060408201518160020160006101000a81548173ffffffffffffffffffffffffffffffffffffffff021916908373ffffffffffffffffffffffffffffffffffffffff1602179055509050503460068560405161216191906132d4565b9081526020016040518091039020600082825401925050819055503373ffffffffffffffffffffffffffffffffffffffff166108fc600a6000858152602001908152602001600020600301549081150290604051600060405180830381858888f193505050501580156121d8573d6000803e3d6000fd5b50600a6000838152602001908152602001600020600080820160006121fd91906123a0565b6001820160006101000a81549073ffffffffffffffffffffffffffffffffffffffff02191690556002820160006101000a81549073ffffffffffffffffffffffffffffffffffffffff02191690556003820160009055600482016000905550507f08f81b6e9109fad00df4c1e4c8017ba4cb67013034439d71e57399c83aa23f3c60405161228a906135dd565b60405180910390a15050505050565b60606005826040516122ab91906132d4565b9081526020016040518091039020805480602002602001604051908101604052809291908181526020016000905b82821015612395578382906000526020600020018054600181600116156101000203166002900480601f0160208091040260200160405190810160405280929190818152602001828054600181600116156101000203166002900480156123815780601f1061235657610100808354040283529160200191612381565b820191906000526020600020905b81548152906001019060200180831161236457829003601f168201915b5050505050815260200190600101906122d9565b505050509050919050565b50805460018160011615610100020316600290046000825580601f106123c657506123e5565b601f0160209004906000526020600020908101906123e491906124d6565b5b50565b828054600181600116156101000203166002900490600052602060002090601f01602090048101928261241e5760008555612465565b82601f1061243757805160ff1916838001178555612465565b82800160010185558215612465579182015b82811115612464578251825591602001919060010190612449565b5b50905061247291906124d6565b5090565b8280548282559060005260206000209081019282156124c5579160200282015b828111156124c45782518290805190602001906124b49291906123e8565b5091602001919060010190612496565b5b5090506124d291906124f3565b5090565b5b808211156124ef5760008160009055506001016124d7565b5090565b5b80821115612513576000818161250a91906123a0565b506001016124f4565b5090565b600061252a61252584613809565b6137d8565b9050808382526020820190508260005b8581101561256a5781358501612550888261261b565b84526020840193506020830192505060018101905061253a565b5050509392505050565b600061258761258284613835565b6137d8565b90508281526020810184848401111561259f57600080fd5b6125aa8482856139c4565b509392505050565b6000813590506125c181613a4a565b92915050565b600082601f8301126125d857600080fd5b81356125e8848260208601612517565b91505092915050565b60008151905061260081613a61565b92915050565b60008135905061261581613a78565b92915050565b600082601f83011261262c57600080fd5b813561263c848260208601612574565b91505092915050565b60008135905061265481613a8f565b92915050565b60006020828403121561266c57600080fd5b600061267a848285016125f1565b91505092915050565b60006020828403121561269557600080fd5b60006126a384828501612606565b91505092915050565b6000602082840312156126be57600080fd5b600082013567ffffffffffffffff8111156126d857600080fd5b6126e48482850161261b565b91505092915050565b60008060006060848603121561270257600080fd5b600084013567ffffffffffffffff81111561271c57600080fd5b6127288682870161261b565b9350506020612739868287016125b2565b925050604084013567ffffffffffffffff81111561275657600080fd5b612762868287016125c7565b9150509250925092565b6000806040838503121561277f57600080fd5b600083013567ffffffffffffffff81111561279957600080fd5b6127a58582860161261b565b925050602083013567ffffffffffffffff8111156127c257600080fd5b6127ce858286016125c7565b9150509250929050565b600080604083850312156127eb57600080fd5b600083013567ffffffffffffffff81111561280557600080fd5b6128118582860161261b565b925050602083013567ffffffffffffffff81111561282e57600080fd5b61283a8582860161261b565b9150509250929050565b60008060006060848603121561285957600080fd5b600084013567ffffffffffffffff81111561287357600080fd5b61287f8682870161261b565b935050602084013567ffffffffffffffff81111561289c57600080fd5b6128a88682870161261b565b92505060406128b9868287016125b2565b9150509250925092565b6000806000606084860312156128d857600080fd5b600084013567ffffffffffffffff8111156128f257600080fd5b6128fe8682870161261b565b935050602084013567ffffffffffffffff81111561291b57600080fd5b6129278682870161261b565b925050604084013567ffffffffffffffff81111561294457600080fd5b6129508682870161261b565b9150509250925092565b6000806040838503121561296d57600080fd5b600083013567ffffffffffffffff81111561298757600080fd5b6129938582860161261b565b92505060206129a485828601612645565b9150509250929050565b60006129ba8383612b21565b905092915050565b60006129ce8383612bc4565b905092915050565b6129df8161392a565b82525050565b6129f66129f18261392a565b613a06565b82525050565b6000612a078261389f565b612a1181856138da565b935083602082028501612a2385613865565b8060005b85811015612a5f5784840389528151612a4085826129ae565b9450612a4b836138c0565b925060208a01995050600181019050612a27565b50829750879550505050505092915050565b6000612a7c826138aa565b612a8681856138da565b935083602082028501612a9885613875565b8060005b85811015612ad357848403895281612ab485826129c2565b9450612abf836138cd565b925060208a01995050600181019050612a9c565b50829750879550505050505092915050565b612aee8161393c565b82525050565b612afd81613948565b82525050565b612b0c8161397c565b82525050565b612b1b816139a0565b82525050565b6000612b2c826138b5565b612b3681856138eb565b9350612b468185602086016139d3565b612b4f81613a2c565b840191505092915050565b6000612b65826138b5565b612b6f81856138fc565b9350612b7f8185602086016139d3565b612b8881613a2c565b840191505092915050565b6000612b9e826138b5565b612ba8818561390d565b9350612bb88185602086016139d3565b80840191505092915050565b600081546001811660008114612be15760018114612c0757612c4b565b607f6002830416612bf281876138eb565b955060ff198316865260208601935050612c4b565b60028204612c1581876138eb565b9550612c208561388a565b60005b82811015612c4257815481890152600182019150602081019050612c23565b80880195505050505b505092915050565b600081546001811660008114612c705760018114612c9557612cd9565b607f6002830416612c81818761390d565b955060ff1983168652808601935050612cd9565b60028204612ca3818761390d565b9550612cae8561388a565b60005b82811015612cd057815481890152600182019150602081019050612cb1565b82880195505050505b505092915050565b6000612cee600e836138fc565b91507f434120726567697374657265642e0000000000000000000000000000000000006000830152602082019050919050565b6000612d2e601c836138fc565b91507f54686973206163636f756e7420616c726561647920696e207573652e000000006000830152602082019050919050565b6000612d6e6013836138fc565b91507f5065726d697373696f6e2064656e696e65642e000000000000000000000000006000830152602082019050919050565b6000612dae601f836138fc565b91507f5468697320646f6d61696e20444350206e6f7420726567697374657265642e006000830152602082019050919050565b6000612dee6019836138fc565b91507f4e6f207075726368617365207265636f726420666f756e642e000000000000006000830152602082019050919050565b6000612e2e600a836138fc565b91507f5250206973737565642e000000000000000000000000000000000000000000006000830152602082019050919050565b6000612e6e6058836138fc565b91507f556e636f6e6669726d6564207075726368617365207265636f7264206578697360008301527f742e205265766f6b65207075726368617365207265636f7264206265666f726560208301527f20627579696e6720616761696e206966206e65656465642e00000000000000006040830152606082019050919050565b6000612efa6012836138fc565b91507f446f6d61696e20726567697374657265642e00000000000000000000000000006000830152602082019050919050565b6000612f3a602e836138fc565b91507f4341206e6f742072656769737465726564202f20596f7520617265206e6f742060008301527f746865207461726765742043412e0000000000000000000000000000000000006020830152604082019050919050565b6000612fa06027836138fc565b91507f4e6f205250207075726368617365207265636f726420666f756e6420666f722060008301527f74686973204341000000000000000000000000000000000000000000000000006020830152604082019050919050565b60006130066029836138fc565b91507f54686973207265706f727420686173206265656e207375626d6974746564206260008301527f79206f74686572732e00000000000000000000000000000000000000000000006020830152604082019050919050565b600061306c601e836138fc565b91507f5250205265616374696f6e2061646472657373206e6f74206d617463682e00006000830152602082019050919050565b60006130ac601c836138fc565b91507f434120696e76616c6964202f206e6f7420726567697374657265642e000000006000830152602082019050919050565b60006130ec601c836138fc565b91507f4e6f7420656e6f75676820726567697374726174696f6e206665652e000000006000830152602082019050919050565b600061312c6015836138fc565b91507f43657274205265706f72742072657665616c65642e00000000000000000000006000830152602082019050919050565b600061316c6016836138fc565b91507f43657274205265706f727420636f6d6d69747465642e000000000000000000006000830152602082019050919050565b60006131ac6018836138fc565b91507f4e6f7420656e6f756768205250206973737565206665652e00000000000000006000830152602082019050919050565b60006131ec6014836138fc565b91507f5250207075726368617365207265766f6b65642e0000000000000000000000006000830152602082019050919050565b600061322c603a836138fc565b91507f4e6f7420656e6f75676820726567697374726174696f6e206665652e202f205460008301527f6869732044435020616c726561647920726567697374657265640000000000006020830152604082019050919050565b6000613292601f836138fc565b91507f506c65617365207375626d6974206578616374207265706f7274206665652e006000830152602082019050919050565b6132ce81613972565b82525050565b60006132e08284612b93565b915081905092915050565b60006132f78285612b93565b91506133038284612b93565b91508190509392505050565b600061331b8287612b93565b91506133278286612b93565b91506133338285612b93565b915061333f82846129e5565b60148201915081905095945050505050565b600061335d8284612c53565b915081905092915050565b60006133748285612c53565b91506133808284612c53565b91508190509392505050565b60006060820190506133a160008301866129d6565b6133ae60208301856129d6565b6133bb60408301846129d6565b949350505050565b600060208201905081810360008301526133dd81846129fc565b905092915050565b600060608201905081810360008301526133ff8186612a71565b905081810360208301526134138185612b5a565b905081810360408301526134278184612a71565b9050949350505050565b60006020820190506134466000830184612af4565b92915050565b600060208201905081810360008301526134668184612b5a565b905092915050565b600060608201905081810360008301526134888186612b5a565b905061349760208301856129d6565b6134a46040830184612ae5565b949350505050565b600060808201905081810360008301526134c68187612b5a565b90506134d56020830186612ae5565b6134e260408301856129d6565b6134ef6060830184612b03565b95945050505050565b600060608201905081810360008301526135128186612b5a565b905081810360208301526135268185612b5a565b90506135356040830184612b12565b949350505050565b6000602082019050818103600083015261355681612ce1565b9050919050565b6000602082019050818103600083015261357681612d21565b9050919050565b6000602082019050818103600083015261359681612d61565b9050919050565b600060208201905081810360008301526135b681612da1565b9050919050565b600060208201905081810360008301526135d681612de1565b9050919050565b600060208201905081810360008301526135f681612e21565b9050919050565b6000602082019050818103600083015261361681612e61565b9050919050565b6000602082019050818103600083015261363681612eed565b9050919050565b6000602082019050818103600083015261365681612f2d565b9050919050565b6000602082019050818103600083015261367681612f93565b9050919050565b6000602082019050818103600083015261369681612ff9565b9050919050565b600060208201905081810360008301526136b68161305f565b9050919050565b600060208201905081810360008301526136d68161309f565b9050919050565b600060208201905081810360008301526136f6816130df565b9050919050565b600060208201905081810360008301526137168161311f565b9050919050565b600060208201905081810360008301526137368161315f565b9050919050565b600060208201905081810360008301526137568161319f565b9050919050565b60006020820190508181036000830152613776816131df565b9050919050565b600060208201905081810360008301526137968161321f565b9050919050565b600060208201905081810360008301526137b681613285565b9050919050565b60006020820190506137d260008301846132c5565b92915050565b6000604051905081810181811067ffffffffffffffff821117156137ff576137fe613a2a565b5b8060405250919050565b600067ffffffffffffffff82111561382457613823613a2a565b5b602082029050602081019050919050565b600067ffffffffffffffff8211156138505761384f613a2a565b5b601f19601f8301169050602081019050919050565b6000819050602082019050919050565b60008190508160005260206000209050919050565b60008190508160005260206000209050919050565b600081519050919050565b600081549050919050565b600081519050919050565b6000602082019050919050565b6000600182019050919050565b600082825260208201905092915050565b600082825260208201905092915050565b600082825260208201905092915050565b600081905092915050565b600061392382613952565b9050919050565b600061393582613952565b9050919050565b60008115159050919050565b6000819050919050565b600073ffffffffffffffffffffffffffffffffffffffff82169050919050565b6000819050919050565b60006139878261398e565b9050919050565b600061399982613952565b9050919050565b60006139ab826139b2565b9050919050565b60006139bd82613952565b9050919050565b82818337600083830152505050565b60005b838110156139f15780820151818401526020810190506139d6565b83811115613a00576000848401525b50505050565b6000613a1182613a18565b9050919050565b6000613a2382613a3d565b9050919050565bfe5b6000601f19601f8301169050919050565b60008160601b9050919050565b613a5381613918565b8114613a5e57600080fd5b50565b613a6a8161393c565b8114613a7557600080fd5b50565b613a8181613948565b8114613a8c57600080fd5b50565b613a9881613972565b8114613aa357600080fd5b5056fea2646970667358221220a1668d1a6fcbfe9da02a4ffe761e7f0026780ddfd8562c3687f76769c8f3664a64736f6c63430007060033",
  "immutableReferences": {},
  "source": "// SPDX-License-Identifier: MIT\n\npragma solidity ^0.7;\npragma experimental ABIEncoderV2;\n\nimport \"./DCPChecker.sol\";\nimport \"./RPReaction.sol\";\n\ncontract IKP {\n\n    struct CA {\n        string name;\n        address payable paymentAccount;\n        bool inUse;\n    }\n\n    struct DCP {\n        string domainName;\n        bool inUse;\n        address payable paymentAccount;\n        DCPChecker checker;\n    }\n\n    struct RP {\n        string domainName;\n        string cname;\n        RPReaction reaction;\n    }\n\n    struct PendingRpPurchase {\n        string cname;\n        address domainAddr;\n        address rpReactionAddr;\n        uint amount;\n        uint purchasedAt;\n    }\n\n    struct ReportRecord {\n      address reporter;\n      uint reportedAt;\n    }\n\n    uint public domainRegisterFee = 1 ether;\n    uint public registerCaFee = 1 ether;\n    uint public reportFee = 3 ether; \n\n    uint public rpMinimumPrice = 15 ether; \n\n    mapping(string => CA) public caList;\n    mapping(string => string[]) public caPubKeys;\n    mapping(string => uint) public caBalances;\n\n    mapping(string => DCP) public dcpList;\n    mapping(string => string[]) public dcpPubKeys;\n\n    mapping(bytes32 => RP) public rpList;\n    mapping(bytes32 => PendingRpPurchase) private pendingRpPurchaseMapping;\n    mapping(bytes32 => ReportRecord) private reportRecords;\n    \n    event NewTransaction(string message);\n    event RpPurchased(bytes32 rpHash);\n\n    function registerCa (string memory _name, string[] memory _pks) public payable {\n        require(msg.value >= registerCaFee, \"Not enough registration fee.\");\n        require(!caList[_name].inUse, \"This account already in use.\");\n        CA memory newCa = CA({\n            name: _name,\n            inUse: true,\n            paymentAccount: msg.sender\n        });\n        caList[_name] = newCa;\n        caPubKeys[_name] = _pks;\n        emit NewTransaction('Domain registered.');\n    }\n\n    //Use \"getRpHash\" to obtain rpHash to query desired RP status\n    function getRpHash(string memory _dname, string memory _cname) public pure returns (bytes32 rpHash){\n      return keccak256(abi.encodePacked(_dname, _cname));\n    }\n\n    //Use \"getDcpPubKeys\" to query desired dcp keys\n    function getDcpPubKeys(string memory _dname) public view returns (string[] memory) {\n      return dcpPubKeys[_dname];\n    }\n\n    //Use \"getCaPubKeys\" to query desired Ca keys\n    function getCaPubKeys(string memory _cname) public view returns (string[] memory) {\n      return caPubKeys[_cname];\n    }\n\n    function registerDomain (string memory _name, address _checkerFunctionAddress, string[] memory _ligitimateKeys) public payable {\n        require(!dcpList[_name].inUse && msg.value >= domainRegisterFee, \"Not enough registration fee. / This DCP already registered\");\n        DCP memory newDcp = DCP({\n            inUse: true,\n            domainName: _name,\n            paymentAccount: msg.sender,\n            checker: DCPChecker(_checkerFunctionAddress)\n        });\n        dcpList[_name] = newDcp;\n        dcpPubKeys[_name] = _ligitimateKeys;\n        emit NewTransaction('CA registered.');\n    }\n\n    function issueRp (string memory _dname, string memory _cname, address _reactionContractAddress) public payable {\n        require(msg.value >= rpMinimumPrice, \"Not enough RP issue fee.\");\n        \n        bytes32 _rpHash = keccak256(abi.encodePacked(_dname, _cname));\n        \n        require(keccak256(abi.encodePacked(_cname)) == keccak256(abi.encodePacked(pendingRpPurchaseMapping[_rpHash].cname)), \"No RP purchase record found for this CA\");\n        require(_reactionContractAddress == pendingRpPurchaseMapping[_rpHash].rpReactionAddr, \"RP Reaction address not match.\");\n        require(msg.sender == caList[_cname].paymentAccount, \"CA not registered / You are not the target CA.\");\n\n        RP memory rp = RP({\n          domainName: _dname,\n          cname: _cname,\n          reaction: RPReaction(_reactionContractAddress)\n        });\n\n        rpList[_rpHash] = rp;\n        caBalances[_cname] += msg.value;\n\n        // Execute pending transaction from domain to CA\n        msg.sender.transfer(pendingRpPurchaseMapping[_rpHash].amount);\n        delete pendingRpPurchaseMapping[_rpHash];\n\n        emit NewTransaction('RP issued.');\n    }\n\n    function purchaseRp (string memory _dname, string memory _cname, address _reactionContractAddress) public payable returns (bytes32 rpHash) {\n      require(keccak256((abi.encodePacked(_dname))) == keccak256(abi.encodePacked(dcpList[_dname].domainName)), \"This domain DCP not registered.\");\n      require(keccak256((abi.encodePacked(_cname))) == keccak256(abi.encodePacked(caList[_cname].name)), \"CA invalid / not registered.\");\n      bytes32 _rpHash = keccak256(abi.encodePacked(_dname, _cname));\n      require(pendingRpPurchaseMapping[_rpHash].purchasedAt == 0, \"Unconfirmed purchase record exist. Revoke purchase record before buying again if needed.\");\n      PendingRpPurchase memory newPendingRpPurchase = PendingRpPurchase({ cname:_cname, amount:msg.value, domainAddr: msg.sender, purchasedAt: block.timestamp, rpReactionAddr:_reactionContractAddress });\n      pendingRpPurchaseMapping[_rpHash] = newPendingRpPurchase;\n\n      emit RpPurchased(_rpHash);\n      return _rpHash;\n    }\n\n    function revokeUnconfirmedRpPurchase(bytes32 _rpHash) public {\n      require(msg.sender == pendingRpPurchaseMapping[_rpHash].domainAddr, \"No purchase record found.\");\n      msg.sender.transfer(pendingRpPurchaseMapping[_rpHash].amount);\n      delete pendingRpPurchaseMapping[_rpHash];\n      emit NewTransaction('RP purchase revoked.');\n    }\n\n\n    function commitReport (string memory _dname, string memory _cname, string memory _key) public payable {\n        require(msg.value == reportFee, \"Please submit exact report fee.\");\n        bytes32 _reportHash = keccak256(abi.encodePacked(_dname, _cname, _key, msg.sender));\n        require(reportRecords[_reportHash].reporter == address(0), \"This report has been submitted by others.\");\n        reportRecords[_reportHash] = ReportRecord({ reporter: msg.sender, reportedAt: block.timestamp });\n        emit NewTransaction('Cert Report committed.');\n    }\n\n    function revealReport (string memory _dname, string memory _cname, string memory _key) public {\n        require(reportRecords[keccak256(abi.encodePacked(_dname, _cname, _key, msg.sender))].reporter == msg.sender, \"Permission denined.\");\n        bytes32 _rpHash = keccak256(abi.encodePacked(_dname, _cname)); \n        \n        // If no domain name / ca name matched, return the report fee to reporter\n        if (keccak256(abi.encodePacked(rpList[_rpHash].domainName)) != keccak256(abi.encodePacked(_dname))\n          || keccak256(abi.encodePacked(caList[_cname].name)) != keccak256(abi.encodePacked(_cname)))\n         {\n            msg.sender.transfer(reportFee);\n            return;\n        }\n\n        bytes32 dnameCnameHash = keccak256(abi.encodePacked(_dname, _cname));\n        bytes32 ligitimateDnameCnameHash = keccak256(abi.encodePacked(rpList[_rpHash].domainName, rpList[_rpHash].cname));\n\n        if(dnameCnameHash != ligitimateDnameCnameHash) {\n          delete reportRecords[keccak256(abi.encodePacked(_dname, _cname, _key, msg.sender))];\n          return;\n        }\n\n        bool isCertValid = dcpList[_dname].checker.check(dcpPubKeys[_dname], _key, caPubKeys[_cname]);\n\n        if(isCertValid) {\n          delete reportRecords[keccak256(abi.encodePacked(_dname, _cname, _key, msg.sender))];\n          return;\n        }\n\n        // Transfer money to entities using the rpMinimumPrice that CA submitted when issuing RP\n        rpList[_rpHash].reaction.trigger{value:rpMinimumPrice}(\n          msg.sender, \n          caList[_cname].paymentAccount,\n\t\t\t\t\tdcpList[_dname].paymentAccount\n\t\t\t\t);\n\n        caBalances[_cname] -= rpMinimumPrice;\n\n        // Delete RP after it has been claimed\n        delete rpList[_rpHash];\n\n        // Delete report records after it has been processed\n        delete reportRecords[keccak256(abi.encodePacked(_dname, _cname, _key, msg.sender))];\n        emit NewTransaction('Cert Report revealed.');\n    }\n\n}\n",
  "sourcePath": "C:/Users/chanc/Documents/devlopment/babel_webpack_starter/src/contracts/IKP.sol",
  "compiler": {
    "name": "solc",
    "version": "0.7.6+commit.7338295f.Emscripten.clang"
  },
  "schemaVersion": "3.3.4",
  "updatedAt": "2021-04-11T13:34:07.164Z",
  "networkType": "ethereum",
  "devdoc": {
    "kind": "dev",
    "methods": {},
    "version": 1
  },
  "userdoc": {
    "kind": "user",
    "methods": {},
    "version": 1
  }
}