{
  "contractName": "IKP",
  "abi": [
    {
      "anonymous": false,
      "inputs": [
        {
          "indexed": false,
          "internalType": "string",
          "name": "message",
          "type": "string"
        }
      ],
      "name": "NewTransaction",
      "type": "event"
    },
    {
      "anonymous": false,
      "inputs": [
        {
          "indexed": false,
          "internalType": "bytes32",
          "name": "rpHash",
          "type": "bytes32"
        }
      ],
      "name": "RpPurchased",
      "type": "event"
    },
    {
      "inputs": [
        {
          "internalType": "string",
          "name": "",
          "type": "string"
        }
      ],
      "name": "caBalances",
      "outputs": [
        {
          "internalType": "uint256",
          "name": "",
          "type": "uint256"
        }
      ],
      "stateMutability": "view",
      "type": "function",
      "constant": true
    },
    {
      "inputs": [
        {
          "internalType": "string",
          "name": "",
          "type": "string"
        }
      ],
      "name": "caList",
      "outputs": [
        {
          "internalType": "string",
          "name": "name",
          "type": "string"
        },
        {
          "internalType": "address payable",
          "name": "paymentAccount",
          "type": "address"
        },
        {
          "internalType": "bool",
          "name": "inUse",
          "type": "bool"
        }
      ],
      "stateMutability": "view",
      "type": "function",
      "constant": true
    },
    {
      "inputs": [
        {
          "internalType": "string",
          "name": "",
          "type": "string"
        },
        {
          "internalType": "uint256",
          "name": "",
          "type": "uint256"
        }
      ],
      "name": "caPubKeys",
      "outputs": [
        {
          "internalType": "string",
          "name": "",
          "type": "string"
        }
      ],
      "stateMutability": "view",
      "type": "function",
      "constant": true
    },
    {
      "inputs": [
        {
          "internalType": "string",
          "name": "",
          "type": "string"
        }
      ],
      "name": "dcpList",
      "outputs": [
        {
          "internalType": "string",
          "name": "domainName",
          "type": "string"
        },
        {
          "internalType": "bool",
          "name": "inUse",
          "type": "bool"
        },
        {
          "internalType": "address payable",
          "name": "paymentAccount",
          "type": "address"
        },
        {
          "internalType": "contract DCPChecker",
          "name": "checker",
          "type": "address"
        }
      ],
      "stateMutability": "view",
      "type": "function",
      "constant": true
    },
    {
      "inputs": [
        {
          "internalType": "string",
          "name": "",
          "type": "string"
        },
        {
          "internalType": "uint256",
          "name": "",
          "type": "uint256"
        }
      ],
      "name": "dcpPubKeys",
      "outputs": [
        {
          "internalType": "string",
          "name": "",
          "type": "string"
        }
      ],
      "stateMutability": "view",
      "type": "function",
      "constant": true
    },
    {
      "inputs": [],
      "name": "domainRegisterFee",
      "outputs": [
        {
          "internalType": "uint256",
          "name": "",
          "type": "uint256"
        }
      ],
      "stateMutability": "view",
      "type": "function",
      "constant": true
    },
    {
      "inputs": [
        {
          "internalType": "bytes32",
          "name": "",
          "type": "bytes32"
        }
      ],
      "name": "pendingRpPurchaseMapping",
      "outputs": [
        {
          "internalType": "string",
          "name": "cname",
          "type": "string"
        },
        {
          "internalType": "address",
          "name": "domainAddr",
          "type": "address"
        },
        {
          "internalType": "address",
          "name": "rpReactionAddr",
          "type": "address"
        },
        {
          "internalType": "uint256",
          "name": "amount",
          "type": "uint256"
        },
        {
          "internalType": "uint256",
          "name": "purchasedAt",
          "type": "uint256"
        }
      ],
      "stateMutability": "view",
      "type": "function",
      "constant": true
    },
    {
      "inputs": [],
      "name": "registerCaFee",
      "outputs": [
        {
          "internalType": "uint256",
          "name": "",
          "type": "uint256"
        }
      ],
      "stateMutability": "view",
      "type": "function",
      "constant": true
    },
    {
      "inputs": [],
      "name": "reportFee",
      "outputs": [
        {
          "internalType": "uint256",
          "name": "",
          "type": "uint256"
        }
      ],
      "stateMutability": "view",
      "type": "function",
      "constant": true
    },
    {
      "inputs": [
        {
          "internalType": "bytes32",
          "name": "",
          "type": "bytes32"
        }
      ],
      "name": "reportRecords",
      "outputs": [
        {
          "internalType": "address",
          "name": "reporter",
          "type": "address"
        },
        {
          "internalType": "uint256",
          "name": "reportedAt",
          "type": "uint256"
        }
      ],
      "stateMutability": "view",
      "type": "function",
      "constant": true
    },
    {
      "inputs": [
        {
          "internalType": "bytes32",
          "name": "",
          "type": "bytes32"
        }
      ],
      "name": "rpList",
      "outputs": [
        {
          "internalType": "string",
          "name": "domainName",
          "type": "string"
        },
        {
          "internalType": "string",
          "name": "cname",
          "type": "string"
        },
        {
          "internalType": "contract RPReaction",
          "name": "reaction",
          "type": "address"
        }
      ],
      "stateMutability": "view",
      "type": "function",
      "constant": true
    },
    {
      "inputs": [],
      "name": "rpMinimumPrice",
      "outputs": [
        {
          "internalType": "uint256",
          "name": "",
          "type": "uint256"
        }
      ],
      "stateMutability": "view",
      "type": "function",
      "constant": true
    },
    {
      "inputs": [
        {
          "internalType": "string",
          "name": "_name",
          "type": "string"
        },
        {
          "internalType": "string[]",
          "name": "_pks",
          "type": "string[]"
        }
      ],
      "name": "registerCa",
      "outputs": [],
      "stateMutability": "payable",
      "type": "function",
      "payable": true
    },
    {
      "inputs": [
        {
          "internalType": "string",
          "name": "_dname",
          "type": "string"
        },
        {
          "internalType": "string",
          "name": "_cname",
          "type": "string"
        }
      ],
      "name": "getRpHash",
      "outputs": [
        {
          "internalType": "bytes32",
          "name": "rpHash",
          "type": "bytes32"
        }
      ],
      "stateMutability": "pure",
      "type": "function",
      "constant": true
    },
    {
      "inputs": [
        {
          "internalType": "string",
          "name": "_dname",
          "type": "string"
        }
      ],
      "name": "getDcpPubKeys",
      "outputs": [
        {
          "internalType": "string[]",
          "name": "",
          "type": "string[]"
        }
      ],
      "stateMutability": "view",
      "type": "function",
      "constant": true
    },
    {
      "inputs": [
        {
          "internalType": "string",
          "name": "_cname",
          "type": "string"
        }
      ],
      "name": "getCaPubKeys",
      "outputs": [
        {
          "internalType": "string[]",
          "name": "",
          "type": "string[]"
        }
      ],
      "stateMutability": "view",
      "type": "function",
      "constant": true
    },
    {
      "inputs": [
        {
          "internalType": "string",
          "name": "_name",
          "type": "string"
        },
        {
          "internalType": "address",
          "name": "_checkerFunctionAddress",
          "type": "address"
        },
        {
          "internalType": "string[]",
          "name": "_ligitimateKeys",
          "type": "string[]"
        }
      ],
      "name": "registerDomain",
      "outputs": [],
      "stateMutability": "payable",
      "type": "function",
      "payable": true
    },
    {
      "inputs": [
        {
          "internalType": "string",
          "name": "_dname",
          "type": "string"
        },
        {
          "internalType": "string",
          "name": "_cname",
          "type": "string"
        },
        {
          "internalType": "address",
          "name": "_reactionContractAddress",
          "type": "address"
        }
      ],
      "name": "issueRp",
      "outputs": [],
      "stateMutability": "payable",
      "type": "function",
      "payable": true
    },
    {
      "inputs": [
        {
          "internalType": "string",
          "name": "_dname",
          "type": "string"
        },
        {
          "internalType": "string",
          "name": "_cname",
          "type": "string"
        },
        {
          "internalType": "address",
          "name": "_reactionContractAddress",
          "type": "address"
        }
      ],
      "name": "purchaseRp",
      "outputs": [
        {
          "internalType": "bytes32",
          "name": "rpHash",
          "type": "bytes32"
        }
      ],
      "stateMutability": "payable",
      "type": "function",
      "payable": true
    },
    {
      "inputs": [
        {
          "internalType": "bytes32",
          "name": "_rpHash",
          "type": "bytes32"
        }
      ],
      "name": "revokeUnconfirmedRpPurchase",
      "outputs": [],
      "stateMutability": "nonpayable",
      "type": "function"
    },
    {
      "inputs": [
        {
          "internalType": "string",
          "name": "_dname",
          "type": "string"
        },
        {
          "internalType": "string",
          "name": "_cname",
          "type": "string"
        },
        {
          "internalType": "string",
          "name": "_key",
          "type": "string"
        }
      ],
      "name": "commitReport",
      "outputs": [
        {
          "internalType": "bytes32",
          "name": "",
          "type": "bytes32"
        }
      ],
      "stateMutability": "payable",
      "type": "function",
      "payable": true
    },
    {
      "inputs": [
        {
          "internalType": "string",
          "name": "_dname",
          "type": "string"
        },
        {
          "internalType": "string",
          "name": "_cname",
          "type": "string"
        },
        {
          "internalType": "string",
          "name": "_key",
          "type": "string"
        }
      ],
      "name": "getCommitReportHash",
      "outputs": [
        {
          "internalType": "bytes32",
          "name": "",
          "type": "bytes32"
        }
      ],
      "stateMutability": "view",
      "type": "function",
      "constant": true
    },
    {
      "inputs": [
        {
          "internalType": "string",
          "name": "_dname",
          "type": "string"
        },
        {
          "internalType": "string",
          "name": "_cname",
          "type": "string"
        },
        {
          "internalType": "string",
          "name": "_key",
          "type": "string"
        }
      ],
      "name": "revealReport",
      "outputs": [],
      "stateMutability": "nonpayable",
      "type": "function"
    }
  ],
  "bytecode": "0x6080604052670de0b6b3a7640000600055670de0b6b3a76400006001556729a2241af62c000060025567d02ab486cedc000060035534801561004057600080fd5b50613dbf806100506000396000f3fe6080604052600436106101405760003560e01c80637ed4ef20116100b6578063c83172521161006f578063c8317252146104e6578063ccb7e7a51461050f578063eccc7bd71461052b578063ef58e9571461055b578063f35905f214610586578063f9d1a466146105a257610140565b80637ed4ef20146103a2578063824a3093146103df578063927eab521461041e578063add4997f1461043a578063ae6df37814610477578063c0ca2b6e146104a757610140565b80634886edda116101085780634886edda1461024157806351c1f58f1461027f57806369a81f08146102aa5780636f5a9c6d146102e7578063783a086314610324578063785492461461036557610140565b80631e23fc8a1461014557806323e8bae31461018257806327d350b3146101ad5780632f383d05146101d85780633190fdaa14610201575b600080fd5b34801561015157600080fd5b5061016c60048036038101906101679190612a29565b6105df565b60405161017991906136ba565b60405180910390f35b34801561018e57600080fd5b50610197610612565b6040516101a49190613aa0565b60405180910390f35b3480156101b957600080fd5b506101c2610618565b6040516101cf9190613aa0565b60405180910390f35b3480156101e457600080fd5b506101ff60048036038101906101fa9190612b14565b61061e565b005b34801561020d57600080fd5b50610228600480360381019061022391906128fd565b610d0a565b604051610238949392919061378f565b60405180910390f35b34801561024d57600080fd5b50610268600480360381019061026391906128d4565b610e35565b604051610276929190613623565b60405180910390f35b34801561028b57600080fd5b50610294610e79565b6040516102a19190613aa0565b60405180910390f35b3480156102b657600080fd5b506102d160048036038101906102cc91906128fd565b610e7f565b6040516102de919061364c565b60405180910390f35b3480156102f357600080fd5b5061030e600480360381019061030991906128fd565b610f86565b60405161031b9190613aa0565b60405180910390f35b34801561033057600080fd5b5061034b600480360381019061034691906128d4565b610fb4565b60405161035c959493929190613735565b60405180910390f35b34801561037157600080fd5b5061038c60048036038101906103879190612bab565b6110c2565b60405161039991906136d5565b60405180910390f35b3480156103ae57600080fd5b506103c960048036038101906103c49190612bab565b6111a1565b6040516103d691906136d5565b60405180910390f35b3480156103eb57600080fd5b50610406600480360381019061040191906128fd565b611280565b604051610415939291906136f7565b60405180910390f35b610438600480360381019061043391906129bd565b611385565b005b34801561044657600080fd5b50610461600480360381019061045c9190612b14565b611584565b60405161046e91906136ba565b60405180910390f35b610491600480360381019061048c9190612b14565b6115c1565b60405161049e91906136ba565b60405180910390f35b3480156104b357600080fd5b506104ce60048036038101906104c991906128d4565b6117af565b6040516104dd939291906137db565b60405180910390f35b3480156104f257600080fd5b5061050d600480360381019061050891906128d4565b611929565b005b6105296004803603810190610524919061293e565b611ae6565b005b61054560048036038101906105409190612a95565b611d12565b60405161055291906136ba565b60405180910390f35b34801561056757600080fd5b50610570612066565b60405161057d9190613aa0565b60405180910390f35b6105a0600480360381019061059b9190612a95565b61206c565b005b3480156105ae57600080fd5b506105c960048036038101906105c491906128fd565b6124ea565b6040516105d6919061364c565b60405180910390f35b600082826040516020016105f492919061354b565b60405160208183030381529060405280519060200120905092915050565b60025481565b60005481565b600083838333604051602001610637949392919061356f565b6040516020818303038152906040528051906020012090503373ffffffffffffffffffffffffffffffffffffffff16600b600083815260200190815260200160002060000160009054906101000a900473ffffffffffffffffffffffffffffffffffffffff1673ffffffffffffffffffffffffffffffffffffffff16146106f3576040517f08c379a00000000000000000000000000000000000000000000000000000000081526004016106ea90613860565b60405180910390fd5b6000848460405160200161070892919061354b565b604051602081830303815290604052805190602001209050846040516020016107319190613534565b604051602081830303815290604052805190602001206009600083815260200190815260200160002060000160405160200161076d91906135b1565b604051602081830303815290604052805190602001201415806107fc57508360405160200161079c9190613534565b604051602081830303815290604052805190602001206004856040516107c29190613534565b90815260200160405180910390206000016040516020016107e391906135b1565b6040516020818303038152906040528051906020012014155b15610896573373ffffffffffffffffffffffffffffffffffffffff166108fc6002549081150290604051600060405180830381858888f19350505050158015610849573d6000803e3d6000fd5b50600b6000838152602001908152602001600020600080820160006101000a81549073ffffffffffffffffffffffffffffffffffffffff0219169055600182016000905550505050610d05565b600085856040516020016108ab92919061354b565b604051602081830303815290604052805190602001209050600060096000848152602001908152602001600020600001600960008581526020019081526020016000206001016040516020016109029291906135c8565b60405160208183030381529060405280519060200120905080821461096f57600b6000858152602001908152602001600020600080820160006101000a81549073ffffffffffffffffffffffffffffffffffffffff02191690556001820160009055505050505050610d05565b60006007886040516109819190613534565b908152602001604051809103902060020160009054906101000a900473ffffffffffffffffffffffffffffffffffffffff1673ffffffffffffffffffffffffffffffffffffffff16638414c63c60088a6040516109de9190613534565b90815260200160405180910390208860058b6040516109fd9190613534565b90815260200160405180910390206040518463ffffffff1660e01b8152600401610a299392919061366e565b60206040518083038186803b158015610a4157600080fd5b505afa158015610a55573d6000803e3d6000fd5b505050506040513d601f19601f82011682018060405250810190610a7991906128ab565b90508015610ad057600b6000868152602001908152602001600020600080820160006101000a81549073ffffffffffffffffffffffffffffffffffffffff0219169055600182016000905550505050505050610d05565b6009600085815260200190815260200160002060020160009054906101000a900473ffffffffffffffffffffffffffffffffffffffff1673ffffffffffffffffffffffffffffffffffffffff16635a90e4c36003543360048b604051610b369190613534565b908152602001604051809103902060010160009054906101000a900473ffffffffffffffffffffffffffffffffffffffff1660078d604051610b789190613534565b908152602001604051809103902060010160019054906101000a900473ffffffffffffffffffffffffffffffffffffffff166040518563ffffffff1660e01b8152600401610bc8939291906135ec565b6000604051808303818588803b158015610be157600080fd5b505af1158015610bf5573d6000803e3d6000fd5b5050505050600354600688604051610c0d9190613534565b9081526020016040518091039020600082825403925050819055506009600085815260200190815260200160002060008082016000610c4c91906125f1565b600182016000610c5c91906125f1565b6002820160006101000a81549073ffffffffffffffffffffffffffffffffffffffff02191690555050600b6000868152602001908152602001600020600080820160006101000a81549073ffffffffffffffffffffffffffffffffffffffff0219169055600182016000905550507f08f81b6e9109fad00df4c1e4c8017ba4cb67013034439d71e57399c83aa23f3c604051610cf7906139e0565b60405180910390a150505050505b505050565b600781805160208101820180518482526020830160208501208183528095505050505050600091509050806000018054600181600116156101000203166002900480601f016020809104026020016040519081016040528092919081815260200182805460018160011615610100020316600290048015610dcc5780601f10610da157610100808354040283529160200191610dcc565b820191906000526020600020905b815481529060010190602001808311610daf57829003601f168201915b5050505050908060010160009054906101000a900460ff16908060010160019054906101000a900473ffffffffffffffffffffffffffffffffffffffff16908060020160009054906101000a900473ffffffffffffffffffffffffffffffffffffffff16905084565b600b6020528060005260406000206000915090508060000160009054906101000a900473ffffffffffffffffffffffffffffffffffffffff16908060010154905082565b60015481565b6060600882604051610e919190613534565b9081526020016040518091039020805480602002602001604051908101604052809291908181526020016000905b82821015610f7b578382906000526020600020018054600181600116156101000203166002900480601f016020809104026020016040519081016040528092919081815260200182805460018160011615610100020316600290048015610f675780601f10610f3c57610100808354040283529160200191610f67565b820191906000526020600020905b815481529060010190602001808311610f4a57829003601f168201915b505050505081526020019060010190610ebf565b505050509050919050565b6006818051602081018201805184825260208301602085012081835280955050505050506000915090505481565b600a602052806000526040600020600091509050806000018054600181600116156101000203166002900480601f0160208091040260200160405190810160405280929190818152602001828054600181600116156101000203166002900480156110605780601f1061103557610100808354040283529160200191611060565b820191906000526020600020905b81548152906001019060200180831161104357829003601f168201915b5050505050908060010160009054906101000a900473ffffffffffffffffffffffffffffffffffffffff16908060020160009054906101000a900473ffffffffffffffffffffffffffffffffffffffff16908060030154908060040154905085565b60058280516020810182018051848252602083016020850120818352809550505050505081815481106110f457600080fd5b90600052602060002001600091509150508054600181600116156101000203166002900480601f0160208091040260200160405190810160405280929190818152602001828054600181600116156101000203166002900480156111995780601f1061116e57610100808354040283529160200191611199565b820191906000526020600020905b81548152906001019060200180831161117c57829003601f168201915b505050505081565b60088280516020810182018051848252602083016020850120818352809550505050505081815481106111d357600080fd5b90600052602060002001600091509150508054600181600116156101000203166002900480601f0160208091040260200160405190810160405280929190818152602001828054600181600116156101000203166002900480156112785780601f1061124d57610100808354040283529160200191611278565b820191906000526020600020905b81548152906001019060200180831161125b57829003601f168201915b505050505081565b600481805160208101820180518482526020830160208501208183528095505050505050600091509050806000018054600181600116156101000203166002900480601f0160208091040260200160405190810160405280929190818152602001828054600181600116156101000203166002900480156113425780601f1061131757610100808354040283529160200191611342565b820191906000526020600020905b81548152906001019060200180831161132557829003601f168201915b5050505050908060010160009054906101000a900473ffffffffffffffffffffffffffffffffffffffff16908060010160149054906101000a900460ff16905083565b6001543410156113ca576040517f08c379a00000000000000000000000000000000000000000000000000000000081526004016113c1906139c0565b60405180910390fd5b6004826040516113da9190613534565b908152602001604051809103902060010160149054906101000a900460ff1615611439576040517f08c379a000000000000000000000000000000000000000000000000000000000815260040161143090613840565b60405180910390fd5b600060405180606001604052808481526020013373ffffffffffffffffffffffffffffffffffffffff168152602001600115158152509050806004846040516114829190613534565b908152602001604051809103902060008201518160000190805190602001906114ac929190612639565b5060208201518160010160006101000a81548173ffffffffffffffffffffffffffffffffffffffff021916908373ffffffffffffffffffffffffffffffffffffffff16021790555060408201518160010160146101000a81548160ff021916908315150217905550905050816005846040516115289190613534565b908152602001604051809103902090805190602001906115499291906126c7565b507f08f81b6e9109fad00df4c1e4c8017ba4cb67013034439d71e57399c83aa23f3c60405161157790613900565b60405180910390a1505050565b6000808484843360405160200161159e949392919061356f565b604051602081830303815290604052805190602001209050809150509392505050565b60006002543414611607576040517f08c379a00000000000000000000000000000000000000000000000000000000081526004016115fe90613a80565b60405180910390fd5b600084848433604051602001611620949392919061356f565b604051602081830303815290604052805190602001209050600073ffffffffffffffffffffffffffffffffffffffff16600b600083815260200190815260200160002060000160009054906101000a900473ffffffffffffffffffffffffffffffffffffffff1673ffffffffffffffffffffffffffffffffffffffff16146116dd576040517f08c379a00000000000000000000000000000000000000000000000000000000081526004016116d490613960565b60405180910390fd5b60405180604001604052803373ffffffffffffffffffffffffffffffffffffffff16815260200142815250600b600083815260200190815260200160002060008201518160000160006101000a81548173ffffffffffffffffffffffffffffffffffffffff021916908373ffffffffffffffffffffffffffffffffffffffff160217905550602082015181600101559050507f08f81b6e9109fad00df4c1e4c8017ba4cb67013034439d71e57399c83aa23f3c60405161179c90613a00565b60405180910390a1809150509392505050565b6009602052806000526040600020600091509050806000018054600181600116156101000203166002900480601f01602080910402602001604051908101604052809291908181526020018280546001816001161561010002031660029004801561185b5780601f106118305761010080835404028352916020019161185b565b820191906000526020600020905b81548152906001019060200180831161183e57829003601f168201915b505050505090806001018054600181600116156101000203166002900480601f0160208091040260200160405190810160405280929190818152602001828054600181600116156101000203166002900480156118f95780601f106118ce576101008083540402835291602001916118f9565b820191906000526020600020905b8154815290600101906020018083116118dc57829003601f168201915b5050505050908060020160009054906101000a900473ffffffffffffffffffffffffffffffffffffffff16905083565b600a600082815260200190815260200160002060010160009054906101000a900473ffffffffffffffffffffffffffffffffffffffff1673ffffffffffffffffffffffffffffffffffffffff163373ffffffffffffffffffffffffffffffffffffffff16146119cd576040517f08c379a00000000000000000000000000000000000000000000000000000000081526004016119c4906138a0565b60405180910390fd5b3373ffffffffffffffffffffffffffffffffffffffff166108fc600a6000848152602001908152602001600020600301549081150290604051600060405180830381858888f19350505050158015611a29573d6000803e3d6000fd5b50600a600082815260200190815260200160002060008082016000611a4e91906125f1565b6001820160006101000a81549073ffffffffffffffffffffffffffffffffffffffff02191690556002820160006101000a81549073ffffffffffffffffffffffffffffffffffffffff02191690556003820160009055600482016000905550507f08f81b6e9109fad00df4c1e4c8017ba4cb67013034439d71e57399c83aa23f3c604051611adb90613a40565b60405180910390a150565b600783604051611af69190613534565b908152602001604051809103902060010160009054906101000a900460ff16158015611b2457506000543410155b611b63576040517f08c379a0000000000000000000000000000000000000000000000000000000008152600401611b5a90613a60565b60405180910390fd5b600060405180608001604052808581526020016001151581526020013373ffffffffffffffffffffffffffffffffffffffff1681526020018473ffffffffffffffffffffffffffffffffffffffff16815250905080600785604051611bc89190613534565b90815260200160405180910390206000820151816000019080519060200190611bf2929190612639565b5060208201518160010160006101000a81548160ff02191690831515021790555060408201518160010160016101000a81548173ffffffffffffffffffffffffffffffffffffffff021916908373ffffffffffffffffffffffffffffffffffffffff16021790555060608201518160020160006101000a81548173ffffffffffffffffffffffffffffffffffffffff021916908373ffffffffffffffffffffffffffffffffffffffff16021790555090505081600885604051611cb59190613534565b90815260200160405180910390209080519060200190611cd69291906126c7565b507f08f81b6e9109fad00df4c1e4c8017ba4cb67013034439d71e57399c83aa23f3c604051611d0490613820565b60405180910390a150505050565b6000600784604051611d249190613534565b9081526020016040518091039020600001604051602001611d4591906135b1565b6040516020818303038152906040528051906020012084604051602001611d6c9190613534565b6040516020818303038152906040528051906020012014611dc2576040517f08c379a0000000000000000000000000000000000000000000000000000000008152600401611db990613880565b60405180910390fd5b600483604051611dd29190613534565b9081526020016040518091039020600001604051602001611df391906135b1565b6040516020818303038152906040528051906020012083604051602001611e1a9190613534565b6040516020818303038152906040528051906020012014611e70576040517f08c379a0000000000000000000000000000000000000000000000000000000008152600401611e67906139a0565b60405180910390fd5b60008484604051602001611e8592919061354b565b6040516020818303038152906040528051906020012090506000600a60008381526020019081526020016000206004015414611ef6576040517f08c379a0000000000000000000000000000000000000000000000000000000008152600401611eed906138e0565b60405180910390fd5b60006040518060a001604052808681526020013373ffffffffffffffffffffffffffffffffffffffff1681526020018573ffffffffffffffffffffffffffffffffffffffff16815260200134815260200142815250905080600a60008481526020019081526020016000206000820151816000019080519060200190611f7d929190612639565b5060208201518160010160006101000a81548173ffffffffffffffffffffffffffffffffffffffff021916908373ffffffffffffffffffffffffffffffffffffffff16021790555060408201518160020160006101000a81548173ffffffffffffffffffffffffffffffffffffffff021916908373ffffffffffffffffffffffffffffffffffffffff16021790555060608201518160030155608082015181600401559050507f9629970d207a2d036264908ea7f3ccec0cfd6c8f8d2f64c5459ee1e1d62543d98260405161205291906136ba565b60405180910390a181925050509392505050565b60035481565b6003543410156120b1576040517f08c379a00000000000000000000000000000000000000000000000000000000081526004016120a890613a20565b60405180910390fd5b600083836040516020016120c692919061354b565b604051602081830303815290604052805190602001209050600a600082815260200190815260200160002060000160405160200161210491906135b1565b604051602081830303815290604052805190602001208360405160200161212b9190613534565b6040516020818303038152906040528051906020012014612181576040517f08c379a000000000000000000000000000000000000000000000000000000000815260040161217890613940565b60405180910390fd5b600a600082815260200190815260200160002060020160009054906101000a900473ffffffffffffffffffffffffffffffffffffffff1673ffffffffffffffffffffffffffffffffffffffff168273ffffffffffffffffffffffffffffffffffffffff1614612225576040517f08c379a000000000000000000000000000000000000000000000000000000000815260040161221c90613980565b60405180910390fd5b6004836040516122359190613534565b908152602001604051809103902060010160009054906101000a900473ffffffffffffffffffffffffffffffffffffffff1673ffffffffffffffffffffffffffffffffffffffff163373ffffffffffffffffffffffffffffffffffffffff16146122d4576040517f08c379a00000000000000000000000000000000000000000000000000000000081526004016122cb90613920565b60405180910390fd5b600060405180606001604052808681526020018581526020018473ffffffffffffffffffffffffffffffffffffffff16815250905080600960008481526020019081526020016000206000820151816000019080519060200190612339929190612639565b506020820151816001019080519060200190612356929190612639565b5060408201518160020160006101000a81548173ffffffffffffffffffffffffffffffffffffffff021916908373ffffffffffffffffffffffffffffffffffffffff160217905550905050346006856040516123b29190613534565b9081526020016040518091039020600082825401925050819055503373ffffffffffffffffffffffffffffffffffffffff166108fc600a6000858152602001908152602001600020600301549081150290604051600060405180830381858888f19350505050158015612429573d6000803e3d6000fd5b50600a60008381526020019081526020016000206000808201600061244e91906125f1565b6001820160006101000a81549073ffffffffffffffffffffffffffffffffffffffff02191690556002820160006101000a81549073ffffffffffffffffffffffffffffffffffffffff02191690556003820160009055600482016000905550507f08f81b6e9109fad00df4c1e4c8017ba4cb67013034439d71e57399c83aa23f3c6040516124db906138c0565b60405180910390a15050505050565b60606005826040516124fc9190613534565b9081526020016040518091039020805480602002602001604051908101604052809291908181526020016000905b828210156125e6578382906000526020600020018054600181600116156101000203166002900480601f0160208091040260200160405190810160405280929190818152602001828054600181600116156101000203166002900480156125d25780601f106125a7576101008083540402835291602001916125d2565b820191906000526020600020905b8154815290600101906020018083116125b557829003601f168201915b50505050508152602001906001019061252a565b505050509050919050565b50805460018160011615610100020316600290046000825580601f106126175750612636565b601f0160209004906000526020600020908101906126359190612727565b5b50565b828054600181600116156101000203166002900490600052602060002090601f01602090048101928261266f57600085556126b6565b82601f1061268857805160ff19168380011785556126b6565b828001600101855582156126b6579182015b828111156126b557825182559160200191906001019061269a565b5b5090506126c39190612727565b5090565b828054828255906000526020600020908101928215612716579160200282015b82811115612715578251829080519060200190612705929190612639565b50916020019190600101906126e7565b5b5090506127239190612744565b5090565b5b80821115612740576000816000905550600101612728565b5090565b5b80821115612764576000818161275b91906125f1565b50600101612745565b5090565b600061277b61277684613aec565b613abb565b9050808382526020820190508260005b858110156127bb57813585016127a1888261286c565b84526020840193506020830192505060018101905061278b565b5050509392505050565b60006127d86127d384613b18565b613abb565b9050828152602081018484840111156127f057600080fd5b6127fb848285613ca7565b509392505050565b60008135905061281281613d2d565b92915050565b600082601f83011261282957600080fd5b8135612839848260208601612768565b91505092915050565b60008151905061285181613d44565b92915050565b60008135905061286681613d5b565b92915050565b600082601f83011261287d57600080fd5b813561288d8482602086016127c5565b91505092915050565b6000813590506128a581613d72565b92915050565b6000602082840312156128bd57600080fd5b60006128cb84828501612842565b91505092915050565b6000602082840312156128e657600080fd5b60006128f484828501612857565b91505092915050565b60006020828403121561290f57600080fd5b600082013567ffffffffffffffff81111561292957600080fd5b6129358482850161286c565b91505092915050565b60008060006060848603121561295357600080fd5b600084013567ffffffffffffffff81111561296d57600080fd5b6129798682870161286c565b935050602061298a86828701612803565b925050604084013567ffffffffffffffff8111156129a757600080fd5b6129b386828701612818565b9150509250925092565b600080604083850312156129d057600080fd5b600083013567ffffffffffffffff8111156129ea57600080fd5b6129f68582860161286c565b925050602083013567ffffffffffffffff811115612a1357600080fd5b612a1f85828601612818565b9150509250929050565b60008060408385031215612a3c57600080fd5b600083013567ffffffffffffffff811115612a5657600080fd5b612a628582860161286c565b925050602083013567ffffffffffffffff811115612a7f57600080fd5b612a8b8582860161286c565b9150509250929050565b600080600060608486031215612aaa57600080fd5b600084013567ffffffffffffffff811115612ac457600080fd5b612ad08682870161286c565b935050602084013567ffffffffffffffff811115612aed57600080fd5b612af98682870161286c565b9250506040612b0a86828701612803565b9150509250925092565b600080600060608486031215612b2957600080fd5b600084013567ffffffffffffffff811115612b4357600080fd5b612b4f8682870161286c565b935050602084013567ffffffffffffffff811115612b6c57600080fd5b612b788682870161286c565b925050604084013567ffffffffffffffff811115612b9557600080fd5b612ba18682870161286c565b9150509250925092565b60008060408385031215612bbe57600080fd5b600083013567ffffffffffffffff811115612bd857600080fd5b612be48582860161286c565b9250506020612bf585828601612896565b9150509250929050565b6000612c0b8383612d81565b905092915050565b6000612c1f8383612e24565b905092915050565b612c3081613c0d565b82525050565b612c47612c4282613c0d565b613ce9565b82525050565b612c5681613bfb565b82525050565b6000612c6782613b82565b612c718185613bbd565b935083602082028501612c8385613b48565b8060005b85811015612cbf5784840389528151612ca08582612bff565b9450612cab83613ba3565b925060208a01995050600181019050612c87565b50829750879550505050505092915050565b6000612cdc82613b8d565b612ce68185613bbd565b935083602082028501612cf885613b58565b8060005b85811015612d3357848403895281612d148582612c13565b9450612d1f83613bb0565b925060208a01995050600181019050612cfc565b50829750879550505050505092915050565b612d4e81613c1f565b82525050565b612d5d81613c2b565b82525050565b612d6c81613c5f565b82525050565b612d7b81613c83565b82525050565b6000612d8c82613b98565b612d968185613bce565b9350612da6818560208601613cb6565b612daf81613d0f565b840191505092915050565b6000612dc582613b98565b612dcf8185613bdf565b9350612ddf818560208601613cb6565b612de881613d0f565b840191505092915050565b6000612dfe82613b98565b612e088185613bf0565b9350612e18818560208601613cb6565b80840191505092915050565b600081546001811660008114612e415760018114612e6757612eab565b607f6002830416612e528187613bce565b955060ff198316865260208601935050612eab565b60028204612e758187613bce565b9550612e8085613b6d565b60005b82811015612ea257815481890152600182019150602081019050612e83565b80880195505050505b505092915050565b600081546001811660008114612ed05760018114612ef557612f39565b607f6002830416612ee18187613bf0565b955060ff1983168652808601935050612f39565b60028204612f038187613bf0565b9550612f0e85613b6d565b60005b82811015612f3057815481890152600182019150602081019050612f11565b82880195505050505b505092915050565b6000612f4e600e83613bdf565b91507f434120726567697374657265642e0000000000000000000000000000000000006000830152602082019050919050565b6000612f8e601c83613bdf565b91507f54686973206163636f756e7420616c726561647920696e207573652e000000006000830152602082019050919050565b6000612fce601383613bdf565b91507f5065726d697373696f6e2064656e696e65642e000000000000000000000000006000830152602082019050919050565b600061300e601f83613bdf565b91507f5468697320646f6d61696e20444350206e6f7420726567697374657265642e006000830152602082019050919050565b600061304e601983613bdf565b91507f4e6f207075726368617365207265636f726420666f756e642e000000000000006000830152602082019050919050565b600061308e600a83613bdf565b91507f5250206973737565642e000000000000000000000000000000000000000000006000830152602082019050919050565b60006130ce605883613bdf565b91507f556e636f6e6669726d6564207075726368617365207265636f7264206578697360008301527f742e205265766f6b65207075726368617365207265636f7264206265666f726560208301527f20627579696e6720616761696e206966206e65656465642e00000000000000006040830152606082019050919050565b600061315a601283613bdf565b91507f446f6d61696e20726567697374657265642e00000000000000000000000000006000830152602082019050919050565b600061319a602e83613bdf565b91507f4341206e6f742072656769737465726564202f20596f7520617265206e6f742060008301527f746865207461726765742043412e0000000000000000000000000000000000006020830152604082019050919050565b6000613200602783613bdf565b91507f4e6f205250207075726368617365207265636f726420666f756e6420666f722060008301527f74686973204341000000000000000000000000000000000000000000000000006020830152604082019050919050565b6000613266602983613bdf565b91507f54686973207265706f727420686173206265656e207375626d6974746564206260008301527f79206f74686572732e00000000000000000000000000000000000000000000006020830152604082019050919050565b60006132cc601e83613bdf565b91507f5250205265616374696f6e2061646472657373206e6f74206d617463682e00006000830152602082019050919050565b600061330c601c83613bdf565b91507f434120696e76616c6964202f206e6f7420726567697374657265642e000000006000830152602082019050919050565b600061334c601c83613bdf565b91507f4e6f7420656e6f75676820726567697374726174696f6e206665652e000000006000830152602082019050919050565b600061338c601583613bdf565b91507f43657274205265706f72742072657665616c65642e00000000000000000000006000830152602082019050919050565b60006133cc601683613bdf565b91507f43657274205265706f727420636f6d6d69747465642e000000000000000000006000830152602082019050919050565b600061340c601883613bdf565b91507f4e6f7420656e6f756768205250206973737565206665652e00000000000000006000830152602082019050919050565b600061344c601483613bdf565b91507f5250207075726368617365207265766f6b65642e0000000000000000000000006000830152602082019050919050565b600061348c603a83613bdf565b91507f4e6f7420656e6f75676820726567697374726174696f6e206665652e202f205460008301527f6869732044435020616c726561647920726567697374657265640000000000006020830152604082019050919050565b60006134f2601f83613bdf565b91507f506c65617365207375626d6974206578616374207265706f7274206665652e006000830152602082019050919050565b61352e81613c55565b82525050565b60006135408284612df3565b915081905092915050565b60006135578285612df3565b91506135638284612df3565b91508190509392505050565b600061357b8287612df3565b91506135878286612df3565b91506135938285612df3565b915061359f8284612c36565b60148201915081905095945050505050565b60006135bd8284612eb3565b915081905092915050565b60006135d48285612eb3565b91506135e08284612eb3565b91508190509392505050565b60006060820190506136016000830186612c27565b61360e6020830185612c27565b61361b6040830184612c27565b949350505050565b60006040820190506136386000830185612c4d565b6136456020830184613525565b9392505050565b600060208201905081810360008301526136668184612c5c565b905092915050565b600060608201905081810360008301526136888186612cd1565b9050818103602083015261369c8185612dba565b905081810360408301526136b08184612cd1565b9050949350505050565b60006020820190506136cf6000830184612d54565b92915050565b600060208201905081810360008301526136ef8184612dba565b905092915050565b600060608201905081810360008301526137118186612dba565b90506137206020830185612c27565b61372d6040830184612d45565b949350505050565b600060a082019050818103600083015261374f8188612dba565b905061375e6020830187612c4d565b61376b6040830186612c4d565b6137786060830185613525565b6137856080830184613525565b9695505050505050565b600060808201905081810360008301526137a98187612dba565b90506137b86020830186612d45565b6137c56040830185612c27565b6137d26060830184612d63565b95945050505050565b600060608201905081810360008301526137f58186612dba565b905081810360208301526138098185612dba565b90506138186040830184612d72565b949350505050565b6000602082019050818103600083015261383981612f41565b9050919050565b6000602082019050818103600083015261385981612f81565b9050919050565b6000602082019050818103600083015261387981612fc1565b9050919050565b6000602082019050818103600083015261389981613001565b9050919050565b600060208201905081810360008301526138b981613041565b9050919050565b600060208201905081810360008301526138d981613081565b9050919050565b600060208201905081810360008301526138f9816130c1565b9050919050565b600060208201905081810360008301526139198161314d565b9050919050565b600060208201905081810360008301526139398161318d565b9050919050565b60006020820190508181036000830152613959816131f3565b9050919050565b6000602082019050818103600083015261397981613259565b9050919050565b60006020820190508181036000830152613999816132bf565b9050919050565b600060208201905081810360008301526139b9816132ff565b9050919050565b600060208201905081810360008301526139d98161333f565b9050919050565b600060208201905081810360008301526139f98161337f565b9050919050565b60006020820190508181036000830152613a19816133bf565b9050919050565b60006020820190508181036000830152613a39816133ff565b9050919050565b60006020820190508181036000830152613a598161343f565b9050919050565b60006020820190508181036000830152613a798161347f565b9050919050565b60006020820190508181036000830152613a99816134e5565b9050919050565b6000602082019050613ab56000830184613525565b92915050565b6000604051905081810181811067ffffffffffffffff82111715613ae257613ae1613d0d565b5b8060405250919050565b600067ffffffffffffffff821115613b0757613b06613d0d565b5b602082029050602081019050919050565b600067ffffffffffffffff821115613b3357613b32613d0d565b5b601f19601f8301169050602081019050919050565b6000819050602082019050919050565b60008190508160005260206000209050919050565b60008190508160005260206000209050919050565b600081519050919050565b600081549050919050565b600081519050919050565b6000602082019050919050565b6000600182019050919050565b600082825260208201905092915050565b600082825260208201905092915050565b600082825260208201905092915050565b600081905092915050565b6000613c0682613c35565b9050919050565b6000613c1882613c35565b9050919050565b60008115159050919050565b6000819050919050565b600073ffffffffffffffffffffffffffffffffffffffff82169050919050565b6000819050919050565b6000613c6a82613c71565b9050919050565b6000613c7c82613c35565b9050919050565b6000613c8e82613c95565b9050919050565b6000613ca082613c35565b9050919050565b82818337600083830152505050565b60005b83811015613cd4578082015181840152602081019050613cb9565b83811115613ce3576000848401525b50505050565b6000613cf482613cfb565b9050919050565b6000613d0682613d20565b9050919050565bfe5b6000601f19601f8301169050919050565b60008160601b9050919050565b613d3681613bfb565b8114613d4157600080fd5b50565b613d4d81613c1f565b8114613d5857600080fd5b50565b613d6481613c2b565b8114613d6f57600080fd5b50565b613d7b81613c55565b8114613d8657600080fd5b5056fea26469706673582212206c8550a5f62c7cbc4a35e5051094deb082b91e5397c39f211d99989522ad71d164736f6c63430007060033",
  "immutableReferences": {},
  "source": "// SPDX-License-Identifier: MIT\n\npragma solidity ^0.7;\npragma experimental ABIEncoderV2;\n\nimport \"./DCPChecker.sol\";\nimport \"./RPReaction.sol\";\n\ncontract IKP {\n\n    struct CA {\n        string name;\n        address payable paymentAccount;\n        bool inUse;\n    }\n\n    struct DCP {\n        string domainName;\n        bool inUse;\n        address payable paymentAccount;\n        DCPChecker checker;\n    }\n\n    struct RP {\n        string domainName;\n        string cname;\n        RPReaction reaction;\n    }\n\n    struct PendingRpPurchase {\n        string cname;\n        address domainAddr;\n        address rpReactionAddr;\n        uint amount;\n        uint purchasedAt;\n    }\n\n    struct ReportRecord {\n      address reporter;\n      uint reportedAt;\n    }\n\n    uint public domainRegisterFee = 1 ether;\n    uint public registerCaFee = 1 ether;\n    uint public reportFee = 3 ether; \n\n    uint public rpMinimumPrice = 15 ether; \n\n    mapping(string => CA) public caList;\n    mapping(string => string[]) public caPubKeys;\n    mapping(string => uint) public caBalances;\n\n    mapping(string => DCP) public dcpList;\n    mapping(string => string[]) public dcpPubKeys;\n\n    mapping(bytes32 => RP) public rpList;\n    mapping(bytes32 => PendingRpPurchase) public pendingRpPurchaseMapping;\n    mapping(bytes32 => ReportRecord) public reportRecords;\n    \n    event NewTransaction(string message);\n    event RpPurchased(bytes32 rpHash);\n\n    function registerCa (string memory _name, string[] memory _pks) public payable {\n        require(msg.value >= registerCaFee, \"Not enough registration fee.\");\n        require(!caList[_name].inUse, \"This account already in use.\");\n        CA memory newCa = CA({\n            name: _name,\n            inUse: true,\n            paymentAccount: msg.sender\n        });\n        caList[_name] = newCa;\n        caPubKeys[_name] = _pks;\n        emit NewTransaction('Domain registered.');\n    }\n\n    //Use \"getRpHash\" to obtain rpHash to query desired RP status\n    function getRpHash(string memory _dname, string memory _cname) public pure returns (bytes32 rpHash){\n      return keccak256(abi.encodePacked(_dname, _cname));\n    }\n\n    //Use \"getDcpPubKeys\" to query desired dcp keys\n    function getDcpPubKeys(string memory _dname) public view returns (string[] memory) {\n      return dcpPubKeys[_dname];\n    }\n\n    //Use \"getCaPubKeys\" to query desired Ca keys\n    function getCaPubKeys(string memory _cname) public view returns (string[] memory) {\n      return caPubKeys[_cname];\n    }\n\n    function registerDomain (string memory _name, address _checkerFunctionAddress, string[] memory _ligitimateKeys) public payable {\n        require(!dcpList[_name].inUse && msg.value >= domainRegisterFee, \"Not enough registration fee. / This DCP already registered\");\n        DCP memory newDcp = DCP({\n            inUse: true,\n            domainName: _name,\n            paymentAccount: msg.sender,\n            checker: DCPChecker(_checkerFunctionAddress)\n        });\n        dcpList[_name] = newDcp;\n        dcpPubKeys[_name] = _ligitimateKeys;\n        emit NewTransaction('CA registered.');\n    }\n\n    function issueRp (string memory _dname, string memory _cname, address _reactionContractAddress) public payable {\n        require(msg.value >= rpMinimumPrice, \"Not enough RP issue fee.\");\n        \n        bytes32 _rpHash = keccak256(abi.encodePacked(_dname, _cname));\n        \n        require(keccak256(abi.encodePacked(_cname)) == keccak256(abi.encodePacked(pendingRpPurchaseMapping[_rpHash].cname)), \"No RP purchase record found for this CA\");\n        require(_reactionContractAddress == pendingRpPurchaseMapping[_rpHash].rpReactionAddr, \"RP Reaction address not match.\");\n        require(msg.sender == caList[_cname].paymentAccount, \"CA not registered / You are not the target CA.\");\n\n        RP memory rp = RP({\n          domainName: _dname,\n          cname: _cname,\n          reaction: RPReaction(_reactionContractAddress)\n        });\n\n        rpList[_rpHash] = rp;\n        caBalances[_cname] += msg.value;\n\n        // Execute pending transaction from domain to CA\n        msg.sender.transfer(pendingRpPurchaseMapping[_rpHash].amount);\n        delete pendingRpPurchaseMapping[_rpHash];\n\n        emit NewTransaction('RP issued.');\n    }\n\n    function purchaseRp (string memory _dname, string memory _cname, address _reactionContractAddress) public payable returns (bytes32 rpHash) {\n      require(keccak256((abi.encodePacked(_dname))) == keccak256(abi.encodePacked(dcpList[_dname].domainName)), \"This domain DCP not registered.\");\n      require(keccak256((abi.encodePacked(_cname))) == keccak256(abi.encodePacked(caList[_cname].name)), \"CA invalid / not registered.\");\n      bytes32 _rpHash = keccak256(abi.encodePacked(_dname, _cname));\n      require(pendingRpPurchaseMapping[_rpHash].purchasedAt == 0, \"Unconfirmed purchase record exist. Revoke purchase record before buying again if needed.\");\n      PendingRpPurchase memory newPendingRpPurchase = PendingRpPurchase({ cname:_cname, amount:msg.value, domainAddr: msg.sender, purchasedAt: block.timestamp, rpReactionAddr:_reactionContractAddress });\n      pendingRpPurchaseMapping[_rpHash] = newPendingRpPurchase;\n\n      emit RpPurchased(_rpHash);\n      return _rpHash;\n    }\n\n    function revokeUnconfirmedRpPurchase(bytes32 _rpHash) public {\n      require(msg.sender == pendingRpPurchaseMapping[_rpHash].domainAddr, \"No purchase record found.\");\n      msg.sender.transfer(pendingRpPurchaseMapping[_rpHash].amount);\n      delete pendingRpPurchaseMapping[_rpHash];\n      emit NewTransaction('RP purchase revoked.');\n    }\n\n\n    function commitReport (string memory _dname, string memory _cname, string memory _key) public payable returns (bytes32) {\n        require(msg.value == reportFee, \"Please submit exact report fee.\");\n        bytes32 _reportHash = keccak256(abi.encodePacked(_dname, _cname, _key, msg.sender));\n        require(reportRecords[_reportHash].reporter == address(0), \"This report has been submitted by others.\");\n        reportRecords[_reportHash] = ReportRecord({ reporter: msg.sender, reportedAt: block.timestamp });\n        emit NewTransaction('Cert Report committed.');\n        return _reportHash;\n    }\n\n    function getCommitReportHash(string memory _dname, string memory _cname, string memory _key) view public returns(bytes32) {\n      bytes32 _reportHash = keccak256(abi.encodePacked(_dname, _cname, _key, msg.sender));\n      return _reportHash;\n    }\n\n    function revealReport (string memory _dname, string memory _cname, string memory _key) public {\n        bytes32 reportHash = keccak256(abi.encodePacked(_dname, _cname, _key, msg.sender));\n        require(reportRecords[reportHash].reporter == msg.sender, \"Permission denined.\");\n        bytes32 _rpHash = keccak256(abi.encodePacked(_dname, _cname)); \n        \n        // If no domain name / ca name matched, return the report fee to reporter\n        if (keccak256(abi.encodePacked(rpList[_rpHash].domainName)) != keccak256(abi.encodePacked(_dname))\n          || keccak256(abi.encodePacked(caList[_cname].name)) != keccak256(abi.encodePacked(_cname)))\n         {\n            msg.sender.transfer(reportFee);\n            delete reportRecords[reportHash];\n            return;\n        }\n\n        bytes32 dnameCnameHash = keccak256(abi.encodePacked(_dname, _cname));\n        bytes32 ligitimateDnameCnameHash = keccak256(abi.encodePacked(rpList[_rpHash].domainName, rpList[_rpHash].cname));\n\n        if(dnameCnameHash != ligitimateDnameCnameHash) {\n          delete reportRecords[reportHash];\n          return;\n        }\n\n        bool isCertValid = dcpList[_dname].checker.check(dcpPubKeys[_dname], _key, caPubKeys[_cname]);\n\n        if(isCertValid) {\n          delete reportRecords[reportHash];\n          return;\n        }\n\n        // Transfer money to entities using the rpMinimumPrice that CA submitted when issuing RP\n        rpList[_rpHash].reaction.trigger{value:rpMinimumPrice}(\n          msg.sender, \n          caList[_cname].paymentAccount,\n\t\t\t\t\tdcpList[_dname].paymentAccount\n\t\t\t\t);\n\n        caBalances[_cname] -= rpMinimumPrice;\n\n        // Delete RP after it has been claimed\n        delete rpList[_rpHash];\n\n        // Delete report records after it has been processed\n        delete reportRecords[reportHash];\n        emit NewTransaction('Cert Report revealed.');\n    }\n\n}\n",
  "sourcePath": "C:/Users/chanc/Documents/devlopment/babel_webpack_starter/src/contracts/IKP.sol",
  "compiler": {
    "name": "solc",
    "version": "0.7.6+commit.7338295f.Emscripten.clang"
  },
  "schemaVersion": "3.3.4",
  "updatedAt": "2021-04-11T15:18:36.070Z",
  "networkType": "ethereum",
  "devdoc": {
    "kind": "dev",
    "methods": {},
    "version": 1
  },
  "userdoc": {
    "kind": "user",
    "methods": {},
    "version": 1
  }
}