{
  "contractName": "RPReaction",
  "abi": [
    {
      "inputs": [
        {
          "internalType": "address payable",
          "name": "_ikp",
          "type": "address"
        }
      ],
      "stateMutability": "nonpayable",
      "type": "constructor"
    },
    {
      "inputs": [
        {
          "internalType": "address payable",
          "name": "detector",
          "type": "address"
        },
        {
          "internalType": "address payable",
          "name": "ca",
          "type": "address"
        },
        {
          "internalType": "address payable",
          "name": "domain",
          "type": "address"
        },
        {
          "internalType": "bool",
          "name": "isRegisteredCa",
          "type": "bool"
        }
      ],
      "name": "trigger",
      "outputs": [],
      "stateMutability": "payable",
      "type": "function"
    }
  ],
  "bytecode": "0x6080604052674563918244f40000600155674563918244f400006002556729a2241af62c000060035534801561003457600080fd5b506040516103e93803806103e98339818101604052602081101561005757600080fd5b8101908080519060200190929190505050806000806101000a81548173ffffffffffffffffffffffffffffffffffffffff021916908373ffffffffffffffffffffffffffffffffffffffff16021790555050610331806100b86000396000f3fe60806040526004361061001e5760003560e01c80639d134af914610023575b600080fd5b6100b16004803603608081101561003957600080fd5b81019080803573ffffffffffffffffffffffffffffffffffffffff169060200190929190803573ffffffffffffffffffffffffffffffffffffffff169060200190929190803573ffffffffffffffffffffffffffffffffffffffff1690602001909291908035151590602001909291905050506100b3565b005b60008054906101000a900473ffffffffffffffffffffffffffffffffffffffff1673ffffffffffffffffffffffffffffffffffffffff163373ffffffffffffffffffffffffffffffffffffffff1614610174576040517f08c379a00000000000000000000000000000000000000000000000000000000081526004018080602001828103825260128152602001807f5065726d697373696f6e2064656e696e6564000000000000000000000000000081525060200191505060405180910390fd5b8015610260578173ffffffffffffffffffffffffffffffffffffffff166108fc6001549081150290604051600060405180830381858888f193505050501580156101c2573d6000803e3d6000fd5b508373ffffffffffffffffffffffffffffffffffffffff166108fc6002549081150290604051600060405180830381858888f1935050505015801561020b573d6000803e3d6000fd5b508273ffffffffffffffffffffffffffffffffffffffff166108fc6002546001543403039081150290604051600060405180830381858888f1935050505015801561025a573d6000803e3d6000fd5b506102f5565b8373ffffffffffffffffffffffffffffffffffffffff166108fc6003549081150290604051600060405180830381858888f193505050501580156102a8573d6000803e3d6000fd5b508273ffffffffffffffffffffffffffffffffffffffff166108fc60035434039081150290604051600060405180830381858888f193505050501580156102f3573d6000803e3d6000fd5b505b5050505056fea26469706673582212200164619030b787605408ce793f06c1be7f3f9e9be3ab899ce1d871e251a0be3f64736f6c63430007060033",
  "immutableReferences": {},
  "source": "// SPDX-License-Identifier: MIT\n\npragma solidity ^0.7;\n\n\ncontract RPReaction {\n\n    address payable private ikp;\n \n    uint256 affectedDomainPayout = 5 ether; // affected-domain payout\n    uint256 higherDetectionFee = 5 ether; // detection payout \\higherDetectionFee\n    uint256 lowerDetectionFee = 3 ether; // if detector reports misbehavior by an unregistered CA, it receives a smaller payout\n\n\tconstructor (address payable _ikp) {\n\t    ikp = _ikp;\n\t}\n\n\tfunction trigger (address payable detector, address payable ca,  address payable domain, bool isRegisteredCa) public payable {\n\t\trequire(msg.sender == ikp, \"Permission denined\");\n\t\tif (isRegisteredCa) {\n\t\t    domain.transfer(affectedDomainPayout); // affected-domain payout\n\t\t    detector.transfer(higherDetectionFee); // detection payout\n        ca.transfer(msg.value - affectedDomainPayout - higherDetectionFee);\n\t\t}\n\t\telse {\n\t\t    detector.transfer(lowerDetectionFee); // detection payout\n        ca.transfer(msg.value - lowerDetectionFee);\n\t\t}\n\n\t}\n\n}",
  "sourcePath": "C:/Users/chanc/Documents/devlopment/babel_webpack_starter/src/contracts/RPReaction.sol",
  "compiler": {
    "name": "solc",
    "version": "0.7.6+commit.7338295f.Emscripten.clang"
  },
  "schemaVersion": "3.3.4",
  "updatedAt": "2021-04-08T15:05:31.888Z",
  "devdoc": {
    "kind": "dev",
    "methods": {},
    "version": 1
  },
  "userdoc": {
    "kind": "user",
    "methods": {},
    "version": 1
  }
}