{
  "contractName": "RPReaction",
  "abi": [
    {
      "inputs": [
        {
          "internalType": "address payable",
          "name": "_ikp",
          "type": "address"
        }
      ],
      "stateMutability": "nonpayable",
      "type": "constructor"
    },
    {
      "inputs": [
        {
          "internalType": "address payable",
          "name": "detector",
          "type": "address"
        },
        {
          "internalType": "address payable",
          "name": "ca",
          "type": "address"
        },
        {
          "internalType": "address payable",
          "name": "domain",
          "type": "address"
        }
      ],
      "name": "trigger",
      "outputs": [],
      "stateMutability": "payable",
      "type": "function",
      "payable": true
    }
  ],
  "bytecode": "0x6080604052674563918244f40000600155674563918244f4000060025534801561002857600080fd5b506040516103303803806103308339818101604052602081101561004b57600080fd5b8101908080519060200190929190505050806000806101000a81548173ffffffffffffffffffffffffffffffffffffffff021916908373ffffffffffffffffffffffffffffffffffffffff16021790555050610284806100ac6000396000f3fe60806040526004361061001e5760003560e01c80635a90e4c314610023575b600080fd5b6100a56004803603606081101561003957600080fd5b81019080803573ffffffffffffffffffffffffffffffffffffffff169060200190929190803573ffffffffffffffffffffffffffffffffffffffff169060200190929190803573ffffffffffffffffffffffffffffffffffffffff1690602001909291905050506100a7565b005b60008054906101000a900473ffffffffffffffffffffffffffffffffffffffff1673ffffffffffffffffffffffffffffffffffffffff163373ffffffffffffffffffffffffffffffffffffffff1614610168576040517f08c379a00000000000000000000000000000000000000000000000000000000081526004018080602001828103825260128152602001807f5065726d697373696f6e2064656e696e6564000000000000000000000000000081525060200191505060405180910390fd5b8073ffffffffffffffffffffffffffffffffffffffff166108fc6001549081150290604051600060405180830381858888f193505050501580156101b0573d6000803e3d6000fd5b508273ffffffffffffffffffffffffffffffffffffffff166108fc6002549081150290604051600060405180830381858888f193505050501580156101f9573d6000803e3d6000fd5b508173ffffffffffffffffffffffffffffffffffffffff166108fc6002546001543403039081150290604051600060405180830381858888f19350505050158015610248573d6000803e3d6000fd5b5050505056fea2646970667358221220cf488dddc72a71904c7464af34986b6ca977b3a439fcb3750e2a15a59c92831b64736f6c63430007060033",
  "immutableReferences": {},
  "source": "// SPDX-License-Identifier: MIT\n\npragma solidity ^0.7;\n\n\ncontract RPReaction {\n\n    address payable private ikp;\n \n    uint256 affectedDomainPayout = 5 ether; // affected-domain payout\n    uint256 detectionFee = 5 ether; // detection payout \\detectionFee\n\n\tconstructor (address payable _ikp) {\n\t    ikp = _ikp;\n\t}\n\n\tfunction trigger (address payable detector, address payable ca,  address payable domain) public payable {\n\t\trequire(msg.sender == ikp, \"Permission denined\");\n\t\t    domain.transfer(affectedDomainPayout); // affected-domain payout\n\t\t    detector.transfer(detectionFee); // detection payout\n        ca.transfer(msg.value - affectedDomainPayout - detectionFee);\n\t}\n\n}",
  "sourcePath": "C:/Users/chanc/Documents/devlopment/babel_webpack_starter/src/contracts/RPReaction.sol",
  "compiler": {
    "name": "solc",
    "version": "0.7.6+commit.7338295f.Emscripten.clang"
  },
  "schemaVersion": "3.3.4",
  "updatedAt": "2021-04-10T16:18:29.566Z",
  "networkType": "ethereum",
  "devdoc": {
    "kind": "dev",
    "methods": {},
    "version": 1
  },
  "userdoc": {
    "kind": "user",
    "methods": {},
    "version": 1
  }
}